:020000040800F2
:10000000D00D002001010008F14A00084740000817
:10001000ED4A0008D9140008A95F0008000000009C
:10002000000000000000000000000000DD56000895
:100030007D1500080000000049530008DF56000845
:100040001B0100081B0100081B0100081B01000820
:100050001B0100081B0100081B0100081B01000810
:100060001B0100081B0100081B010008DD1400082B
:100070001B0100081B0100081B010008ED1400080B
:100080001B0100081B0100081B0100081B010008E0
:100090001B0100081B0100081B0100081B010008D0
:1000A0001B0100087D5700081B0100081B01000808
:1000B0001B0100081B0100081B0100081B010008B0
:1000C0001B0100081B0100081B0100081B010008A0
:1000D0001B010008955F00081B0100081B010008B8
:1000E0001B0100081B0100081B010008DFF80CD0F1
:1000F00000F066FE004800473D690008D00D002072
:100100000648804706480047FEE7FEE7FEE7FEE7B1
:10011000FEE7FEE7FEE7FEE7FEE7FEE76B570008B7
:10012000ED000008202A04DB203A21FA02F0002129
:10013000704721FA02F3D040C2F1200291400843F7
:100140001946704740EA01039B0703D009E008C93C
:10015000121F08C0042AFAD203E011F8013B00F88C
:10016000013B521EF9D27047D2B201E000F8012BD8
:10017000491EFBD270470022F6E710B513460A4627
:1001800004461946FFF7F0FF204610BD0FB400B536
:100190008DB010A909900B9000914FF0FF300A909C
:1001A00000200C9005480690054807906A4609A86B
:1001B0000F9900F0EBFC0DB05DF814FBA90B0008E3
:1001C000C70B00082DE9FF5F1D464FF0FF3BD5E947
:1001D000014691465F464FF00008A9697F1C0198CF
:1001E0008847296A824688470028F6D1BAF1FF3F3E
:1001F0000CD024F4C064002E19DD600614D5BAF1C9
:100200002B0F09D0BAF12D0F0ED103E0584604B0E0
:10021000BDE8F09F44F48064A9697F1C0198884779
:10022000761E8246002E02DDBAF1300F03D0B9F1FE
:10023000000F26D032E0A969761E44F400747F1CBA
:10024000019888478246002E05DDBAF1780F06D066
:10025000BAF1580F03D0B9F1000F10D01EE0B9F178
:10026000000F02D0B9F1100F18D1A969761E24F43D
:1002700000747F1C019888478246102002E0082005
:1002800000E00A20814609E008FB0908A969761EFA
:1002900044F400747F1C019888478246002E05DDD7
:1002A0004946504600F05DFC0028EDDAE969019806
:1002B0008847A00502D46FF00100A8E7E00725D128
:1002C000600613D5600502D5C8F1000000E0404685
:1002D00029680A1D2A600968220501D5087015E001
:1002E000220701D5088011E008600FE02868011D91
:1002F00029600068210502D580F8008006E021070A
:1003000002D5A0F8008001E0C0F8008038467EE702
:100310002DE9FF4F087883B09946FF2805D0491C86
:100320002D2804D00024002008E000200BE0012448
:10033000F9E700EB800003EB4000491C0B78FF2B32
:10034000F7D104B1404200230293147819461D46A8
:100350002D2C01D02B2C04D1521C2D2C13D0002479
:100360000294AA461478FF2C0FD00A25A3FB057827
:1003700001FB05814FF0000C03FB0C11521CE3192B
:100380004AEB0101EEE70124EAE7814453EA010068
:1003900002D019F5C87F06DA03980021C0E90011E0
:1003A00007B0BDE8F08F0025AE4E2F46DFF8B882CB
:1003B000184600F0ADFCCDE90001B9F1000002DA09
:1003C000C9F1000400E004460023A74A1AEB030B1E
:1003D00042EB045A12E0E00707D02A46334638467B
:1003E000414600F02AFA074688462A463346104618
:1003F000194600F022FA05460E466410002CEAD198
:10040000DDE90001B9F1000F5A46534606DA00F063
:1004100086FA3A46434600F082FA05E000F00DFA0B
:100420003A46434600F009FA029A0AB181F00041C7
:10043000039AC2E90001B3E72DE9FF4F1F468DB0D3
:10044000D7E901464FF0FF382E2045464FF000090E
:100450000B90B9696D1C0E988847396A82468847A7
:100460000028F6D1BAF1FF3F0AD024F4D064002E60
:1004700011DDBAF12B0F08D0BAF12D0F0BD102E02C
:10048000404611B08DE744F48064B9696D1C0E9844
:1004900088478246761E6946600501D52D2000E01A
:1004A0002B208DF8000001F1010B0DF1200809E06F
:1004B000B9696D1C0E98884782460F9844F4007401
:1004C000761E0560002E02DDBAF1300FF0D00B99D8
:1004D0008A453ED144F0800406E00F99681CA9F1DA
:1004E000010944F400740860B9696D1C761E0E9809
:1004F000884782463028F0D02BE00B998A4505D1F9
:10050000200603D444F08004761E18E0504605F01F
:1005100063FE08B30DF11301761E44F400748B459D
:1005200008D2AAF130000BF8010B200607D5A9F17B
:10053000010003E0200602D409F101008146A00574
:1005400002D50F99681C0860B9696D1C0E98884720
:100550008246002ED1DC53E0002E51DDBAF1650F4A
:1005600002D0BAF1450F4BD1A00549D5B9696D1C30
:1005700024F44074761E0E9888478246002E0CDDC7
:100580002B2804D0BAF12D0F07D144F48074B96937
:100590006D1C0E9888478246761EE00501D52D21F8
:1005A00000E02B2108F8011BCDF82C8021E00DF193
:1005B0002901761E44F4007488450CD2AAF130005B
:1005C00010F0FF0088F8000002D10B99884509D986
:1005D00008F1010806E0E00501D5244801E042F2F7
:1005E0000F708146B9696D1C0E98884782460F9836
:1005F0000560002E04DD504605F0EEFD0028D6D142
:10060000F9690E988847FF208BF8000088F80000F1
:100610000020069007904B466A4608A906A8FFF7F7
:1006200077FEA00502D46FF001002AE714F0240F32
:100630000AD0E00714D1DDE906123868031D3B60DB
:100640000068C0E900120BE0DDE9060100F09CFB48
:100650000146E00704D13868021D3A600068016075
:1006600028460EE7000014400000F03FF1D8FFFFDD
:1006700030B480EA010202F0004530F0004221F07F
:10068000004013D090B1C30DD40DC2F31601C0F3D6
:100690001600E41A41F4000140F400027D34914256
:1006A00001D3641C00E04900002C02DA30BC0020B9
:1006B00070474FF400000023914201D3891A03438D
:1006C00040084FEA4101F7D151B1914202D14FF0B8
:1006D000004105E002D24FF0010101E06FF001019D
:1006E00003EBC450284430BC00F07EBA2DE9FE4F25
:1006F000804681EA0300C00F0C46009021F00041C3
:1007000023F00045B8EB0200A94105D2404621463E
:1007100090461C460B46024623F00040104347D04B
:10072000270DC7F30A00C3F30A510290401A019043
:1007300040286BDAC3F3130040F4801B0098924604
:1007400020B10023D2EB030A63EB0B0B019859464F
:10075000C0F14002504600F0E3F906460D4650460F
:100760005946019A00F0EBF910EB080061410024B2
:1007700087EA115284EAE7731A4340D0009A62B3C1
:10078000019A012A4FEA075215DC001B61EB0201B6
:100790004FF0004202EA0752CDE90042001C41F549
:1007A000801132462B4600F065FA03B0BDE8F08FA9
:1007B00040462146F9E7001B61EB0201001C41F5B0
:1007C000801300185B412018A2F5001747EB0301C6
:1007D00040EAD570B6196D4111E06D084FEA360652
:1007E00045EAC0754FEA0752001B61EB0201001C8D
:1007F00041F5801149084FEA300000195141324655
:100800002B4603B0BDE8F04F00F025BA0098012256
:1008100040000023D0EB020263EBE0730098214616
:100820004FEAE074B8EB000061EB0401E9E783F004
:1008300000435BE781F0004158E72DE9FE4F81EA74
:10084000030404F0004421F0004100944FF0000B39
:1008500023F0004350EA01045ED052EA03045BD067
:10086000C3F30A54C1F30A552C44A4F2F33401949F
:10087000A0FB0254C1F3130141F48011C3F313032D
:1008800043F4801301FB024400FB034E840A970AE1
:1008900044EA815447EA8357A4FB076802958D0A0E
:1008A00005FB07854FEA932C04FB0C542705029D9A
:1008B0004FEA065847EA1637B5EB08056EEB070C0A
:1008C000870E920E47EA811742EA8312A7FB0201C4
:1008D000B6EB0B0164EB00042B0D43EA0C335E18FE
:1008E00044EB1C50DA465146E7FB0201C5F3130402
:1008F0004FEA0B3343EA14534FEA0432019C43EAB4
:100900000603A4F10C040294009CCDE900B400F0AD
:10091000B1F903B0BDE8F08F00200146F9E72DE9F9
:10092000F04D81EA030404F0004B21F00045144629
:100930004FF0000A23F0004150EA050220D054EAAB
:1009400001021DD0C5F30A570246C5F31303C1F3D4
:100950001300C1F30A5640F4801543F48013A7EB4B
:100960000608101BD64608F2FD3873EB050002D3CB
:1009700008F1010801E092185B41B8F1000F03DAB9
:1009800000200146BDE8F08D00204FF4801106469E
:1009900084460EE0171B73EB050705D3121B63EBB0
:1009A000050306434CEA010C49084FEA300092184F
:1009B0005B4150EA0107EDD152EA030012D082EA0E
:1009C000040083EA0501084305D0101BAB4106D2A1
:1009D0000122002306E000224FF0004302E06FF006
:1009E000010253101AEB06004CEB085110EB0A0001
:1009F00041EB0B01BDE8F04D00F02DB9C10F80EACD
:100A0000E0700844CA079623002100F0F6B8962348
:100A10000022114600F0F1B80EB5C10F80EAE07077
:100A20000844CA07002140F233438DE80E000A460D
:100A30000B4600F01FF903B000BDC1F30A5210B518
:100A4000C1F3130140F2FF3341F480119A4201DAFD
:100A5000002010BD40F233439A42A2F2334203DC3D
:100A60005242FFF75FFB10BD904010BD00F0004206
:100A700030F000400AD0C10D01F56071C0F31600DE
:100A800042EA0151C2084007114370470020014665
:100A9000704730B50B46014600202022012409E0B2
:100AA00021FA02F59D4205D303FA02F5491B04FA27
:100AB00002F52844151EA2F10102F1DC30BD2DE93A
:100AC000F05F0546002092469B46884606468146D2
:100AD00040241BE02846414647462246FFF722FBBA
:100AE00053465A46C01A914110D311461846224621
:100AF00000F016F82D1A67EB01084F462246012038
:100B0000002100F00DF817EB00094E41201EA4F162
:100B10000104DFDC484631462A464346BDE8F09FE3
:100B2000202A04DB203A00FA02F1002070479140AD
:100B3000C2F1200320FA03F3194390407047202AA2
:100B400006DBCB17203A41FA02F043EAE07306E0F5
:100B500041FA02F3D040C2F1200291400843194605
:100B600070473A2800D2303820F02002412A01D3C1
:100B7000A2F13700884201D34FF0FF3070470000E8
:100B8000026811441378016018467047D160044927
:100B900051610449116200211161114600F028B928
:100BA000810B0008E50D0008426842B1016811F8A8
:100BB000013B23B1521EC0E90012184670470121C3
:100BC000C160881E704742685AB1C368016843B962
:100BD00083688B4205D0491E521CC0E900120020D8
:100BE00070474FF0FF3070470029A8BF7047401C86
:100BF000490008BF20F00100704710B4B0FA80FC33
:100C000000FA0CF050EA010404BF10BC704749B16F
:100C1000CCF1200421FA04F411FA0CF118BF0121DF
:100C200021430843A3EB0C01CB1D4FEA00614FEABF
:100C3000102042BF002010BC704700EBC35010448E
:100C40000029A4BF10BC7047401C490008BF20F019
:100C5000010010BC704710B5141E73F1000408DACF
:100C6000401C41F1000192185B411A4301D120F070
:100C7000010010BD2DE9F04D92469B4611B1B1FA2D
:100C800081F202E0B0FA80F220329046FFF748FF8E
:100C900004460F4640EA0A0041EA0B0153465A4611
:100CA000084313D0114653EA010019D0C8F140029D
:100CB0005046FFF737FA05460E465046594642461B
:100CC000FFF72EFF084305D0012004E020463946F7
:100CD000BDE8F08D0020054346EAE0762C4337431B
:100CE0000A986305E40AA0EB08000022FD0A44EA22
:100CF00047540A3002D500200146E9E701051019E2
:100D00006941DDE9084500196941BDE8F04DA2E7F8
:100D10000EB540F2334202920022CDE90022134682
:100D2000FFF7A8FF03B000BDC1F30A52C1F31301DE
:100D300040F2FF3341F480119A4202DA002001466A
:100D4000704740F233439A42A2F2334202DC5242ED
:100D5000FFF7E8B9FFF7E4BE30B5041E71F10004F7
:100D600004DB4FF00044404264EB0101141E73F1B8
:100D7000000405DB1C464FF00043524263EB0403C2
:100D8000994208BF904230BD01F0004330B421F0D9
:100D9000004150EA010206D00A0DA2F56072C1F3CB
:100DA0001301002A02DC30BC00207047440F44EAE3
:100DB000C104C100E01830BC00EBC250FFF714BF03
:100DC000064C074D06E0E06840F0010394E8070098
:100DD00098471034AC42F6D3FFF78CF9D0DA00080C
:100DE000F0DA0008C0B24FF4F05100F097B90000FB
:100DF0002DE9F34F8BB04FF0000801F10C000C46C9
:100E00004FF0010B46460DF1080A0190626901217D
:100E100001989047051E2DD0252D2CD0216A88479A
:100E2000C0B16269012101989047216A8847002872
:100E3000F7D1411E62690198904700E0761CA169D4
:100E40000B988847216A88470028F7D1E1690B98F9
:100E50008847DBE7A1690B9888470746A84201D17C
:100E6000761CD3E7E1690B9888477F1C02D1B8F163
:100E7000000F6FD046E1002762693D463946019870
:100E800090472A2804D162690121019890470125E1
:100E9000DFF884926269012101989047A0F1300146
:100EA0000A290AD24F45E5DC07EB870100EB410731
:100EB000303FDFD445F01005ECE7E90601D46FF0D0
:100EC00000476C280AD04C2814D0682815D06A280E
:100ED0000DD074281CD07A281AD01DE06269012137
:100EE000019890476C2802D045F0040514E045F0C5
:100EF00002050DE045F020050AE062690121019834
:100F00009047682802D045F0080505E045F40065E3
:100F10006269012101989047C4E9015765283DD0D5
:100F200019DC58287AD00CDC452837D004DC252879
:100F300026D0412831D131E046282FD047282CD166
:100F40002CE05B2877D0612828D063287CD06428E7
:100F500023D15AE0D0E06F2848D008DC66281DD0A5
:100F600067281BD0692821D06E2816D127E0702869
:100F700045D0732868D0752847D078280DD14DE02A
:100F8000A1690B988847054625283FF469AFE169B8
:100F90000B9888476D1C3FF46AAFB3E023466A465E
:100FA0006FF001000B99FFF747FA9EE045F0400013
:100FB0006060A80723464FF0000236D43EE0E80701
:100FC0007FF447AF2068011D21600068290501D525
:100FD00006701BE7290701D5068017E7A90703D587
:100FE000F117C0E9006111E706600FE745F0400026
:100FF0006060A80723464FF0080216D41EE040F6B2
:101000000E0125EA0100606016E045F040006060D6
:10101000A80723464FF00A0207D40FE045F040002E
:101020006060A80708D5234610226FF001000B99D5
:10103000AFF3008059E007E0234610226FF0010073
:101040000B99FFF7BFF850E04FF000094F464B46B1
:10105000632802D05B2806D040E0E80601D40120D6
:10106000A06001273AE062690121019890475E285B
:1010700005D14FF0010962694946019890472169FD
:1010800039B900210A46534643F82120491C082952
:10109000FADBB0B3216969B9C11700EBD162531112
:1010A0000AEB830122F01F02821A01200B68904094
:1010B00003430B6062690121019890475D28E8D1E4
:1010C000B9F1000F09D00020514651F82020D24339
:1010D00041F82020401C0828F7DB02AB224600978D
:1010E0006FF001000B99AFF3008000280CDA401C70
:1010F00008D1BBF1000F05D04FF0FF300DB0BDE8B7
:10110000F08FFFE74046F9E7E90701D108F1010850
:1011100006444FF0000B79E6CCCCCC0C7F2801D9EB
:10112000002208E0064A02EB5002C007127800D104
:10113000120902F00F0201209040084070470000A1
:1011400090DA000870B5044600252068806800F039
:10115000010018B32068806820F0010021688860D1
:1011600001F080F9054613E001F07CF9401B0228EC
:101170000ED92068806800F0010048B1A06A40F0F4
:101180001000A062E06A40F00100E062012070BD42
:101190002068806800F001000028E5D10020F6E713
:1011A00070B505466C6AA06A00F05000E0B9A06A0C
:1011B00040F40070A0622068806800F46020B0F500
:1011C000602F0DD1207B58B9A06A20F48070A062F6
:1011D000A06A00F4805018B9A06A40F00100A06233
:1011E000204600F0F1FB03E0206A016B28468847A7
:1011F00070BD70B505466C6AA06A40F04000A06200
:10120000E06A40F00400E062204600F0DFFB70BDC1
:1012100070B50446656A284600F0D7FB70BD000033
:1012200038B504460025002000902068806800F052
:10123000010078BB2068806840F001002168886068
:10124000194800681949B0FBF1F0009002E00098DD
:10125000401E009000980028F9D101F003F90546DE
:1012600019E001F0FFF8401B022814D920688068BB
:1012700000F0010078B9A06A40F01000A062E06AB6
:1012800040F00100E06200BF002084F8240000BFAD
:10129000012038BD05E02068806800F001000028CA
:1012A000DFD00020F5E700001000002040420F00D2
:1012B00008B500BF002000901B480068006800903F
:1012C000194800684068009000BF00BF16480068D9
:1012D000C06840F0100014490968C8601C22134916
:1012E000114802F097FE00224FF40071104801F0FF
:1012F000B3F8002202210E4801F0AEF800224FF4AC
:1013000080510B4801F0A8F82821042003F018FCB4
:1013100004F030F8074805F057FB07A004F04AFE38
:1013200001200A49887208BD14020020BC02002076
:10133000000C01407C08002075386732B3F5CABC48
:10134000BBAFB3C9B9A60D0A0000000050090020C8
:10135000F0B588B004460F4615461E46ADF8147029
:10136000174890F850008DF810008DF818508DF83F
:10137000166001208DF8190000200790BDF81000BC
:10138000ADF80000BDF81200ADF80200059806990E
:10139000CDE90101079803900A46039BDDE90001AE
:1013A00003F014F8BDF810002080BDF81200608032
:1013B00005980699C4E901010798E06008B0F0BDFE
:1013C0009403002010B51248007800B3114800784B
:1013D000E8B101221103104801F03EF80F480078EF
:1013E000401C0E490870084600780D49097888426B
:1013F0000DDB00224FF48051074801F02DF800204A
:101400000649087003480078401E0249087010BD64
:101410004700002048000020000C01404900002047
:101420004A0000202DE9F04F89B082468B46BBF17F
:101430000C0F03DB9AF80000232805D01AA004F053
:10144000B9FD09B0BDE8F08F08A805A906AB07AA49
:10145000CDE9001015A15046FEF798FE0598FFF75C
:1014600005FB04460D460698FFF700FB06460F46AF
:101470000798FFF7FBFA8046089842460B46CDE9ED
:101480000067CDE9024504900DA004F093FD1149D9
:101490000798C8600F4806990161059941610D4997
:1014A0000898087600BFCCE7657272002325662C89
:1014B00025662C25662C49443A256440000000002E
:1014C00025662C25662C25662C49443A25640D0A90
:1014D000000000005009002000BFFEE710B50248E0
:1014E00000F0B4FC10BD00009400002010B50248CC
:1014F00000F0ACFC10BD00005C02002030B590F89C
:1015000040500124AC40C56B6C6004686360446863
:10151000102C04D10468A2600468E16003E0046850
:10152000A1600468E26030BD10B50C480088142842
:1015300002DB02200A4908700A4803F01BFA01285E
:1015400006D1002005490880064803F063FC04E04A
:1015500002480088401C0149088010BD340000206A
:10156000540000201009002010B503F0E3FC2021F6
:10157000014803F02DFA10BD30090020704772B603
:1015800000BFFEE710B540211D4800F053FF08B929
:10159000012010BD4FF480511A4800F04BFF08B9EC
:1015A0000220F6E72021164800F044FF08B9032086
:1015B000EFE74FF40051124800F03CFF08B9042057
:1015C000E7E740210E4800F035FF08B90520E0E7C5
:1015D00080210B4800F02EFF08B90620D9E74FF410
:1015E0008041074800F026FF08B90720D1E7102105
:1015F000034800F01FFF08B90820CAE70020C8E729
:10160000000C014000080140014611B9094800786A
:101610007047012902D107484078F9E7022902D131
:1016200004488078F4E7032902D10248C078EFE744
:101630000020EDE7D802002030B5314CE488C4F535
:10164000805404802E4CA488A4F5006424B20C803D
:101650002B4C6488C4F5006424B21480284C248880
:10166000A4F5006424B21C80B1F90040002C01DB19
:10167000254600E06542962D02DA00240C800CE03D
:10168000B1F90040002C04DD0C88963C24B20C809B
:1016900003E00C88963424B20C80B2F90040002C90
:1016A00001DB254600E06542962D02DA0024148015
:1016B0000CE0B2F90040002C04DD1488963C24B202
:1016C000148003E01488963424B21480B3F90040E7
:1016D000002C01DB254600E06542962D02DA00244D
:1016E0001C800CE0B3F90040002C04DD1C88963C03
:1016F00024B21C8003E01C88963424B21C8030BDC8
:101700003E000020024622B1012A0AD0022A18D146
:101710000FE001EB41000C4B03EB800090F902005D
:10172000704701EB4100084B03EB800090F9030088
:10173000F6E701EB4100044B03EB800090F9040055
:10174000EEE70020ECE7000064030020F8B5044653
:1017500000260020009000BF94F82400012801D149
:101760000220F8BD012084F8240000BF2046FFF7C6
:10177000E9FC06462046FFF753FD0646002E69D1D8
:10178000A06A20F4885040F00200A062022001F01C
:1017900029F934490968B1FBF0F04000009002E0FB
:1017A0000098401E009000980028F9D120688068B9
:1017B00040F008002168886000F054FE054616E0FD
:1017C00000F050FE401B0A2811D92068806800F004
:1017D000080060B1A06A20F0020040F01000A06292
:1017E00000BF002084F8240000BF0120B9E7206872
:1017F000806800F008000028E2D12068806840F08E
:1018000004002168886000F02DFE054616E000F017
:1018100029FE401B0A2811D92068806800F00400C6
:1018200060B1A06A20F0020040F01000A06200BF8A
:10183000002084F8240000BF012092E7206880681F
:1018400000F004000028E2D1A06A20F0020040F07D
:101850000100A06200BF002084F8240000BF3046D1
:101860007FE700001000002038B50246002300206A
:10187000009000BF92F82400012801D1022038BD59
:10188000012082F8240000BF4868072812D210689F
:10189000406B0C79641E04EB84051F24AC40A0430C
:1018A0000D796D1E05EB85050C68AC40204314686E
:1018B000606327E048680D2812D21068006B0C792D
:1018C000E41F04EB84051F24AC40A0430D79ED1FF9
:1018D00005EB85050C68AC4020431468206311E0DB
:1018E0001068C06A0C790D3C04EB84051F24AC40E1
:1018F000A0430D790D3D05EB85050C68AC402043F8
:101900001468E06208680A2812D31068C0680C786E
:101910000A3C04EB44050724AC40A0430D780A3D83
:1019200005EB45058C68AC4020431468E0600FE08F
:10193000106800690C7804EB44050724AC40A04310
:101940000D7805EB45058C68AC4020431468206198
:101950000868102802D00868112827D1174C106891
:10196000A0421ED11068806800F40000F0B9106831
:10197000806840F400001468A0600868102815D141
:101980000F4800680F4CB0FBF4F000EB8000400003
:10199000009002E00098401E009000980028F9D1C5
:1019A00004E0906A40F020009062012300BF002014
:1019B00082F8240000BF184661E7000000240140BF
:1019C0001000002040420F00704770477047000031
:1019D0002DE9F0410446002700250026A84614B949
:1019E0000120BDE8F081A06810B1207D00B100BFEA
:1019F000A06A30B90020E06284F82400204600F09C
:101A000089F82046FFF79EFB0746A06A00F0100009
:101A1000002873D1002F71D1A06A20F4885040F0C3
:101A20000200A062E16960680843217B40EA41004E
:101A30000643A068B0F5807F02D0A068012802D1DB
:101A40004FF4807000E000200543207D012811D173
:101A5000207B38B9A069401E4FF4006141EA403054
:101A6000054307E0A06A40F02000A062E06A40F071
:101A70000100E0622068406820F469402843216842
:101A800048602068806821490840304321688860A8
:101A9000A068B0F5807F02D0A068012802D14FF481
:101AA000807000E00020B0F5807F03D1208A401EC6
:101AB0004FEA00582068C06A20F4700040EA08002D
:101AC0002168C8622068806811490840B04208D186
:101AD0000020E062A06A20F0020040F00100A06255
:101AE00011E0A06A20F0020040F01000A062E06A5D
:101AF00040F00100E062012705E0FFE7A06A40F046
:101B00001000A062012738466BE70000FDF7E1FFF7
:101B1000FE0E1FFF10B586B0044600200290039011
:101B2000049005902249206888423ED100BF214898
:101B3000806940F400701F4988610846806900F49C
:101B40000070019000BF00BF00BF0846806940F0F0
:101B5000040088610846806900F00400019000BF1D
:101B600000BF1E2002900320039002A9124800F03B
:101B7000D1FA12481249086000204860002110483C
:101B800081608021C160490001618900416120219B
:101B90008161C901C16100F027FA08B1FFF7EFFCCC
:101BA00000BF07482062446200BF06B010BD0000BD
:101BB00000240140001002400008014008000240DB
:101BC000940000202DE9F04104460D4616460027FA
:101BD00057492068884203D056492068884205D179
:101BE0005348001D006800F4702000E00020002829
:101BF0007ED100BF94F82400012802D10220BDE864
:101C0000F081012084F8240000BF2046FFF708FB84
:101C10000746002F6DD1A06A40F60161884340F469
:101C20008070A06243492068884209D14048001D65
:101C3000006800F4702008B9012002E0002000E0F4
:101C4000012078B1A06A20F48010A062206840686A
:101C500000F4806000B3A06A20F4005040F480508B
:101C6000A06219E0A06A40F48010A06230492068A8
:101C7000884203D02F492068884205D12C48001D96
:101C8000006800F4806000E0002028B1A06A20F421
:101C9000005040F48050A062A06A00F4805020B14F
:101CA000E06A20F00600E06201E00020E06200BF90
:101CB000002084F8240000BF1F48216A88621F4862
:101CC000216AC8621E48216A08636FF00200216819
:101CD00008602068806840F480702168886022680D
:101CE00002F14C0133462A46206A00F0B1F901E0C6
:101CF0001AE014E02068806800F46020B0F5602FDE
:101D000006D12068806840F4A000216888600CE05B
:101D10002068806840F480102168886005E000BF7A
:101D2000002084F8240000E00127384667E700001F
:101D30000024014000280140A111000811120008F0
:101D4000F31100080146002291F82100022808D072
:101D50000420886300BF002081F8200000BF01201C
:101D600070470868006820F00E000B68186008686B
:101D7000006820F001000B68186091F840300120E5
:101D80009840CB6B5860012081F8210000BF0020F3
:101D900081F8200000BF1046E2E7000070B504465D
:101DA000002594F82100022803D00420A063012517
:101DB00048E02068006820F00E0021680860206874
:101DC000006820F00100216808601F4920688842EF
:101DD00001D1012026E01C4914312068884201D13C
:101DE00010201FE0184928312068884201D1801551
:101DF00018E015493C312068884201D1801411E077
:101E0000114950312068884202D14FF4803009E0F6
:101E10000D4964312068884202D14FF4801001E0FE
:101E20004FF08070084908394860012084F821008B
:101E300000BF002084F8200000BF606B10B1204676
:101E4000616B8847284670BD0800024070B50446A3
:101E5000E06B05682068066894F84010042088400C
:101E60002840002846D006F00400002842D0206810
:101E7000006800F0200028B92068006820F0040005
:101E80002168086057492068884201D1042027E072
:101E9000544914312068884201D1402020E0514942
:101EA00028312068884201D1001519E04D493C31A4
:101EB0002068884202D14FF4804011E049495031F6
:101EC0002068884202D14FF4802009E045496431FE
:101ED0002068884202D14FF4800001E04FF080601A
:101EE000404908394860E06A00287AD02046E16A13
:101EF000884776E094F84010022088402840A0B33C
:101F000006F0020088B32068006800F0200040B9A5
:101F10002068006820F00A0021680860012084F829
:101F2000210030492068884201D1022028E02D4953
:101F300014312068884201D1202021E0294928312C
:101F40002068884201D140151AE026493C312068BA
:101F5000884202D14FF4005012E0224950312068EB
:101F6000884203D14FF400300AE017E01D49643184
:101F70002068884202D14FF4001001E04FF0007059
:101F800018490839486000BF002084F8200000BFCD
:101F9000A06A30B32046A16A884722E094F8401036
:101FA000082088402840E0B106F00800C8B1206849
:101FB000006820F00E002168086094F840100120AD
:101FC0008840E16B48600120A06384F8210000BFD5
:101FD000002084F8200000BF206B10B12046216B48
:101FE000884770BD080002400146002209B901205F
:101FF0007047164B0868C01A1423B0FBF3F080003A
:10200000086412480838C863022081F82100086873
:10201000026843F6F0708243D1E901031843CB68AC
:1020200018430B6918434B6918438B691843CB69F4
:10203000184302430868026000208863012081F889
:102040002100002081F8200000BFD1E708000240F5
:102050002DE9F04104460D4616461F464FF0000894
:1020600000BF94F82000012802D10220BDE8F081D1
:10207000012084F8200000BF94F8210001282CD111
:10208000022084F821000020A0632068006820F06E
:102090000100216808603B46324629462046FFF78A
:1020A0002DFAE06A30B12068006840F00E00216827
:1020B00008600BE02068006820F0040021680860D8
:1020C0002068006840F00A00216808602068006805
:1020D00040F001002168086006E000BF002084F89D
:1020E000200000BF4FF002084046BFE770B504462D
:1020F00000F0B8F906462546681C10B1044800787F
:10210000054400BF00F0AEF9801BA842FAD370BDB1
:102110000C0000202DE9F8470346002294466EE1AA
:102120004FF0010808FA02F4D1F8008008EA040030
:10213000A0427DD1DFF8DCA2D1F80480A8EB0A0927
:10214000D0453AD014DCB8F1030F50D009DCB8F117
:10215000000F31D0B8F1010F1CD0B8F1020F49D1F6
:1021600020E0B8F1110F18D0B8F1120F42D11EE0E3
:10217000B9F5881F25D006DCB9F5803F20D0B9F528
:10218000801F37D11AE0B9F5001F18D0B9F5041F28
:1021900030D117E0D1F80CC02DE0D1F80C8008F157
:1021A000040C28E0D1F80C8008F1080C23E0D1F8E9
:1021B0000C8008F10C0C1EE000BF00BF00BF00BF88
:1021C00000BF00BFD1F80880B8F1000F02D14FF076
:1021D000040C0BE0D1F80880B8F1010F03D14FF0E7
:1021E000080C1C6102E04FF0080C5C6103E04FF04A
:1021F000000C00E000BF00BFFF2801D8984601E0B6
:1022000003F104084646FF2802D84FEA820803E09B
:10221000A2F108084FEA88084746D6F800804FF038
:102220000F0909FA07F928EA09080CFA07F900E08A
:1022300088E048EA0908C6F80080D1F8048008F070
:102240008058B8F1805F7DD100BFDFF8CC81D8F82D
:10225000188048F00108DFF8C091C9F81880C84616
:10226000D8F8188008F00108CDF8008000BF00BF42
:102270004FEAB9384FEA920958F829504FEA827864
:102280004FEA18794FF00F0808FA09F825EA08050F
:10229000DFF88881434502D14FF0000816E0DFF8EF
:1022A0008081434502D14FF001080FE0DFF87481CF
:1022B000434502D14FF0020808E0DFF86C81434546
:1022C00002D14FF0030801E04FF004084FEA827991
:1022D0004FEA197908FA09F848EA0505DFF84C8150
:1022E0004FEA920948F82950D1F8048008F4801880
:1022F000B8F5801F0AD1DFF83881D8F8008048EAA5
:102300000008DFF82C91C9F8008009E0DFF820818F
:10231000D8F8008028EA0008DFF81491C9F8008096
:10232000D1F8048008F40018B8F5001F10D1DFF8C8
:10233000008108F10408D8F8008048EA0008DFF8B6
:10234000F09000E05AE009F10409C9F800800DE0BE
:10235000DFF8DC8008F10408D8F8008028EA0008DB
:10236000DFF8CC9009F10409C9F80080D1F80480A5
:1023700008F40038B8F5003F0ED1DFF8B480A8F1BA
:102380000408D8F8008048EA0008DFF8A490A9F112
:102390000409C9F800800DE0DFF89480A8F1040872
:1023A000D8F8008028EA0008DFF88490A9F1040931
:1023B000C9F80080D1F8048008F48038B8F5803F6F
:1023C0000ED1DFF86C80A8F10808D8F8008048EA40
:1023D0000008DFF85C90A9F10809C9F800800DE059
:1023E000DFF84C80A8F10808D8F8008028EA000837
:1023F000DFF83C90A9F10809C9F80080521CD1F817
:10240000008028FA02F8B8F1000F7FF489AEBDE829
:10241000F887000000001110001002400008014081
:10242000000C014000100140001401400800014070
:1024300008040140024693680B400BB1012000E004
:102440000020704710B5C26821EA020302EA0104C5
:1024500043EA0443036110BD0AB1016101E00B04CA
:1024600003617047014800687047000004000020C5
:1024700070B504460CB9012070BD94F83D0028B930
:10248000002084F83C00204600F092F9242084F8D3
:102490003D002068006820F0010021680860206885
:1024A000006840F40040216808602068006820F45B
:1024B00000402168086000F077FC05465C496068D0
:1024C000884206D85B48854201D2012007E00020FF
:1024D00005E05948854201D2012000E00020012892
:1024E00000D1C9E75548B5FBF0F62068406820F0F8
:1024F0003F003043216848604D496068884201D8F8
:10250000701C07E04FF4967070434FF47A71B0FB83
:10251000F1F0401C2168096A21F03F01084321685D
:10252000086243496068884214D8681E616849009F
:10253000B0FBF1F0401CC0F30B00042801D20420D2
:102540003DE0681E61684900B0FBF1F0401CC0F33B
:102550000B0034E0A06838B9681E616801EB4101E6
:10256000B0FBF1F0401C0AE0681E616801EBC1029B
:1025700002EB0111B0FBF1F0401C40F48040C0F3CD
:102580000B0008B901201AE0A06848B9681E61680C
:1025900001EB4101B0FBF1F0401CC0F30B000CE07B
:1025A000681E616801EBC10202EB0111B0FBF1F0A2
:1025B000401CC0F30B0040F4804040F40040216810
:1025C000C9694CF6FF72914308432168C861D4E998
:1025D000070108432168096821F0C0010843216808
:1025E0000860D4E9031008432168896848F2FF3283
:1025F0009143084321688860D4E9050108432168B4
:10260000C96821F0FF0108432168C860206800689C
:1026100040F001002168086000202064202084F838
:102620003D000020206384F83E0000BF24E7000046
:10263000A086010080841E0000093D0040420F007A
:102640002DE9F8430446894616461F46DDF82080EA
:10265000FFF708FF054694F83D0020287ED1192396
:10266000012251492046009501F0A1FD10B1022040
:10267000BDE8F88300BF94F83C00012801D1022096
:10268000F6E7012084F83C0000BF2068006800F0F5
:10269000010028B92068006840F001002168086046
:1026A0002068006820F4006021680860212084F818
:1026B0003D00102084F83E0000202064666267859B
:1026C000608D20853948E0622B46424649462046C7
:1026D00001F0DAFC08B10120CAE700BF0020009039
:1026E00020684069009020688069009000BF00BFAA
:1026F00044E02A464146204601F035FE50B1206CA8
:10270000042805D12068006840F400702168086042
:102710000120ADE7606A007821680861606A401CAA
:102720006062608D401E6085208D401E208520687F
:102730004069C0F3800070B1208D60B1606A00789C
:1027400021680861606A401C6062608D401E60857F
:10275000208D401E20852A46414600E022E020468A
:1027600001F0F2FC50B1206C042805D1206800680B
:1027700040F4007021680860012079E7208D00286E
:10278000B7D12068006840F40070216808602020FC
:1027900084F83D00002084F83E0000BF84F83C002F
:1027A00000BF65E7022063E7020010000000FFFFA2
:1027B00010B586B004460020029003900490059066
:1027C0001B492068884231D100BF1A48806940F017
:1027D0000800184988610846806900F008000190E7
:1027E00000BF00BF4FF44070029002200390012010
:1027F00004900320059002A90F48FFF78BFC00BF4F
:102800000E49486840F0E06040F00200486000BFB8
:1028100000BF0848C06940F400100649C861084676
:10282000C06900F40010019000BF00BF06B010BDE9
:102830000054004000100240000C01400000014024
:102840000348006803490978084401490860704753
:10285000040000200C00002010B50848006840F07B
:10286000100006490860032000F0A8F80F2000F0CF
:1028700007F800F02BF8002010BD000000200240F7
:1028800070B504460E4800784FF47A71B1FBF0F051
:102890000C490968B1FBF0F5284600F0D5FE08B1F7
:1028A000012070BD102C07D200222146501E00F0DE
:1028B00047F80548046001E00120F2E70020F0E756
:1028C0000C000020100000200800002008B500BF08
:1028D0001148806940F001000F498861084680690D
:1028E00000F00100009000BF00BF00BF0846C069B3
:1028F00040F08050C8610846C06900F080500090E8
:1029000000BF00BF00BF0549486820F0E06040F00C
:102910000070486000BF08BD001002400000014088
:1029200001460846002809DB00F01F0301229A40F7
:1029300043099B0003F1E023C3F8002100BF704767
:102940002DE9F05F80460D461646002703F056FB42
:10295000074639462A46334601F00700C0F1070A08
:10296000BAF1040F02D94FF0040A01E0C0F1070ADE
:10297000D14600F1040ABAF1070F02D24FF0000A63
:1029800001E0A0F1030AD4464FF0010A0AFA09FA5D
:10299000AAF1010A0AEA020A0AFA0CFA4FF0010B3C
:1029A0000BFA0CFBABF1010B0BEA030B4AEA0B042D
:1029B0002146404603F02AFBBDE8F09F00BF00F02F
:1029C0000702064B19684FF6FF031940044B0B43EF
:1029D00043EA0221014B196000BF70470CED00E093
:1029E0000000FA052DE9F04706464FF000080025E3
:1029F00000270024A146012E31D0022E56D0102EE1
:102A00005FD132484468006800F0807008B33048F5
:102A1000C4F38341475C04F4803078B12B484068AC
:102A2000C0F340402B4911F8008004F4803040B1DD
:102A30002948B0FBF8F000FB07F502E0274807FB48
:102A400000F52248406800F48000B0F5800F01D105
:102A5000A94603E068000321B0FBF1F932E01B480E
:102A6000046A04F44070B0F5807F05D104F00200E0
:102A700010B14FF4004918E004F44070B0F5007F45
:102A800007D11248406A00F0020010B149F64049EF
:102A90000BE004F44070B0F5407F06D10B480068AD
:102AA00000F4003008B14FF224490BE000F08CF93B
:102AB00006494968C1F38131491C4900B0FBF1F96D
:102AC00000E000BF00BF4846BDE8F08700100240AC
:102AD000CA7E0008DA7E000800127A0000093D0074
:102AE000F8B5044600260025207800F001000028F3
:102AF0006BD000274348C06900F0805070B900BF18
:102B00004048C06940F080503E49C8610846C069ED
:102B100000F08050009000BF00BF01273A480068D5
:102B200000F48070B0B93848006840F480703649CD
:102B30000860FFF797FC064606E0FFF793FC801B52
:102B4000642801D90320F8BD2F48006800F4807084
:102B50000028F2D02B48006A00F440752DB3A088FD
:102B600000F44070A84220D02648006A20F4407546
:102B7000012026490860002008602248056205F00F
:102B8000010090B1FFF76EFC064608E0FFF76AFC13
:102B9000801B41F28831884201D90320D3E71948CC
:102BA000006A00F002000028F0D01648006A20F405
:102BB00040706168084313490862012F04D1084638
:102BC000C06920F08050C86100BF207800F002008A
:102BD000022807D10B48406820F44040A168084310
:102BE00008494860207800F01000102807D10548F7
:102BF000406820F48000E1680843024948600020F2
:102C0000A1E7000000100240007000404004424272
:102C100070B504460D460CB9012070BD5A480068D5
:102C200000F00700A8420ED25748006820F00700C5
:102C30002843554908600846006800F00700A8428C
:102C400001D00120E9E7207800F0020002281DD120
:102C5000207800F00400042805D14C48406840F476
:102C6000E0604A494860207800F00800082805D153
:102C70004648406840F460504449486043484068D2
:102C800020F0F000A168084340494860207800F037
:102C9000010078B36068012806D13C48006800F460
:102CA000003090B90120B8E76068022806D13748A3
:102CB000006800F0007040B90120AEE733480068BA
:102CC00000F0020008B90120A7E73048406820F072
:102CD0000300616808432D494860FFF7C3FB0646BF
:102CE00009E0FFF7BFFB801B41F28831884202D91F
:102CF000032092E707E02548406800F00C00616877
:102D0000B0EB810FEDD12048006800F00700A84229
:102D10000ED91D48006820F0070028431A490860B2
:102D20000846006800F00700A84201D0012074E7BF
:102D3000207800F00400042807D11448406820F4EB
:102D4000E060E168084311494860207800F008001D
:102D5000082808D10D48406820F46050216940EAF5
:102D6000C1000A49486000F03FF808494968C1F3CA
:102D70000311074A515CC8400649086006480068CC
:102D8000FFF77EFD002048E70020024000100240CF
:102D9000DC7E0008100000200800002001480068C8
:102DA000704700001000002000B5FFF7F7FF04494E
:102DB0004968C1F30221034A515CC84000BD0000CC
:102DC00000100240EC7E000800B5FFF7E7FF044961
:102DD0004968C1F3C221034A515CC84000BD0000EC
:102DE00000100240EC7E000870B500210022002493
:102DF00000230020134D696801F00C05F5B1042D86
:102E000002D0082D19D101E00F4819E00F4DC1F390
:102E10008346AB5D01F4803555B10A4D6D68C5F34D
:102E200040450B4E725D084D5D43B5FBF2F402E088
:102E3000084D03FB05F4204602E000BF024800BF36
:102E400000BF70BD0010024000127A00B87E00087A
:102E5000C87E000800093D00F8B504460CB9012001
:102E6000F8BD207800F00100002878D0F8484068CC
:102E700000F00C0004280CD0F548406800F00C006D
:102E8000082811D1F248406800F48030B0F5803F46
:102E90000AD1EF48006800F4003000285FD0606875
:102EA00000285CD10120DBE700BF6068B0F5803FFF
:102EB00006D1E748006840F48030E549086028E022
:102EC000606858B9E248006820F48030E049086042
:102ED0000846006820F4802008601AE06068B0F5B9
:102EE000A02F0BD1DA48006840F48020D849086050
:102EF0000846006840F4803008600AE0D448006862
:102F000020F48030D24908600846006820F4802010
:102F1000086000BF606888B1FFF7A4FA054606E0C4
:102F2000FFF7A0FA401B642801D9032098E7C8489E
:102F3000006800F400300028F2D010E0FFF792FAA9
:102F4000054606E0FFF78EFA401B642801D90320EE
:102F500086E7BF48006800F400300028F2D12078EE
:102F600000F00200022857D1B948406800F00C0078
:102F700050B1B748406800F00C00082818D1B44898
:102F8000406800F4803098B9B148006800F0020051
:102F900020B12069012801D0012061E7AC48006818
:102FA00020F0F800616940EAC100A949086033E0F7
:102FB0002069E8B10120A7490860FFF753FA0546E8
:102FC00006E0FFF74FFA401B022801D9032047E72C
:102FD0009F48006800F002000028F2D09C4800687A
:102FE00020F0F800616940EAC1009949086013E0E7
:102FF000002098490860FFF735FA054606E0FFF71C
:1030000031FA401B022801D9032029E790480068C3
:1030100000F002000028F2D1207800F00800082813
:103020002DD1A069B8B101208B490860FFF71AFAC9
:10303000054606E0FFF716FA401B022801D90320D7
:103040000EE78348406A00F002000028F2D0012019
:1030500002F07CF913E000207F490860FFF702FAD4
:10306000054606E0FFF7FEF9401B022801D90320C0
:10307000F6E67748406A00F002000028F2D1207896
:1030800000F00400042873D100277148C06900F0E3
:10309000805070B900BF6E48C06940F080506C49E4
:1030A000C8610846C06900F08050009000BF00BFB2
:1030B00001276A48006800F48070B0B9674800686A
:1030C00040F4807065490860FFF7CCF9054606E0DA
:1030D000FFF7C8F9401B642801D90320C0E65F4808
:1030E000006800F480700028F2D000BFE06801287A
:1030F00006D15748006A40F001005549086227E0B0
:10310000E06858B95248006A20F00100504908624E
:103110000846006A20F00400086219E0E06805280B
:103120000BD14B48006A40F0040049490862084648
:10313000006A40F0010008620AE04548006A20F099
:103140000100434908620846006A20F00400086252
:1031500000BFE068A0B1FFF785F9054609E0FFF779
:1031600081F9401B41F28831884202D9032077E679
:1031700022E03748006A00F002000028EFD012E099
:10318000FFF770F9054608E0FFF76CF9401B41F2C4
:103190008831884201D9032062E62D48006A00F098
:1031A00002000028F0D1012F05D12948C06920F084
:1031B00080502749C86100BFE069C8B3244840680F
:1031C00000F00C00082860D0E069022848D10020F7
:1031D00020490866FFF746F9054606E0FFF742F981
:1031E000401B022801D903203AE61948006800F084
:1031F00000700028F2D1206AB0F5803F07D1144852
:10320000406820F40030A168084311494860D4E9BF
:10321000080108430E49496821F4741108430C4918
:10322000486001200B490866FFF71CF9054607E0D6
:103230003DE0FFF717F9401B022801D903200FE6F4
:103240000348006800F000700028F2D02FE0000072
:1032500000100240000042428004424200700040E0
:10326000002014490866FFF7FDF8054606E0FFF761
:10327000F9F8401B022801D90320F1E50E48006847
:1032800000F000700028F2D111E0E069012800D1BF
:10329000E6E50948466806F48031206A814204D197
:1032A00006F47011606A814201D00120D8E5002047
:1032B000D6E50000000042420010024010B504466E
:1032C0000CB9012010BD606A38B96068B0F5827F22
:1032D00000D105E00021E16102E00021216161618E
:1032E0000021A16294F8510028B9002084F8500010
:1032F000204600F043F8022084F85100206800685E
:1033000020F0400021680860A08800F482702189C4
:1033100001F404410843A18901F400610843217CC0
:1033200001F002010843217D01F001010843218BD6
:1033300001F400710843217F01F038010843202186
:10334000095D01F080010843218D01F4005108431B
:10335000216808600421A06901EA104021684860E2
:103360002068C06920F400602168C86100206065A1
:10337000012084F851000020A4E7000010B586B0B9
:10338000044600200290039004900590194920689B
:1033900088422DD100BF1848806940F480501649FA
:1033A00088610846806900F48050019000BF00BF2A
:1033B00000BF0846806940F00400886108468069C3
:1033C00000F00400019000BF00BFA0200290022086
:1033D00003900320059002A90848FEF79BFE4020B9
:1033E000029000200390049002A90448FEF792FE88
:1033F00006B010BD0030014000100240000801403E
:103400002DE9FE4F04460F4690461D460C9E0120B6
:103410000190FFF727F8814694F851B06068029058
:10342000AA46BBF1010F0BD00298B0F5827F04D100
:10343000A06810B9BBF1040F02D00220BDE8FE8FD6
:103440001FB1B8F1000F00D00DB90120F6E700BFA1
:1034500094F85000012801D10220EFE7012084F800
:10346000500000BF94F85100042802D0052084F8D1
:10347000510000206065C4F83880E587A587276380
:10348000E586A586206460642068006800F040003E
:10349000402805D02068006840F04000216808609E
:1034A000E068B0F5006F52D1606810B1BAF1010F59
:1034B00009D1206B00882168C860206B801C2063C4
:1034C000E08E401EE0863BE02068806800F002004D
:1034D000022810D1E08E70B1019801280BD1206B29
:1034E00000882168C860206B801C2063E08E401E2D
:1034F000E086002001902068806800F0010068B13B
:10350000E08F58B12068C068A16B0880A06B801C58
:10351000A063E08F401EE08701200190FEF7A2FF2C
:10352000A0EB0900B0420BD3701C48B1012084F815
:10353000510000BF002084F8500000BF03207DE749
:10354000E08E0028C0D1E08F0028BDD152E0606835
:1035500010B1BAF1010F09D1206B0078216808730E
:10356000206B401C2063E08E401EE0863CE020681B
:10357000806800F00200022810D1E08E70B101983E
:1035800001280BD1206B007821680873206B401C48
:103590002063E08E401EE086002001902068806855
:1035A00000F0010068B1E08F58B12068C068A16BDD
:1035B0000870A06B401CA063E08F401EE0870120D4
:1035C0000190FEF74FFFA0EB0900B04201D3701C41
:1035D00000B94EB9012084F8510000BF002084F8E2
:1035E000500000BF032029E7E08E0028BFD1E08F04
:1035F0000028BCD14A463146204601F0CEFF40B1FA
:103600002020606500BF002084F8500000BF01202A
:1036100014E7A06850B900BF002000902068C0687F
:10362000009020688068009000BF00BF012084F8EF
:10363000510000BF002084F8500000BF606D08B149
:103640000120FBE60020F9E670B504462546681E19
:10365000B0F1807F01D301200FE0681E4FF0E02120
:1036600048610F214FF0FF3002F0D0FC00204FF0F6
:10367000E021886107200861002070BD7047704715
:1036800030B502460B4600BF92F83C00012801D13C
:10369000022030BD012082F83C0000BF022082F8E9
:1036A0003D00106844681068816824F07004186850
:1036B000044310684460104D1068A8420BD0106895
:1036C000B0F1804F07D00D4D1068A84203D00C4DCB
:1036D0001068A84205D121F08001586801431068A4
:1036E0008160012082F83D0000BF002082F83C008C
:1036F00000BF00BFCDE70000002C014000040040E7
:103700000008004010B504460CB9012010BD94F823
:103710003D0028B9002084F83C00204600F026F83F
:10372000022084F83D00211D206802F02FF80120BE
:1037300084F8460000BF84F83E0001213F20015577
:10374000402001554120015500BF00BF012084F8F1
:10375000420043200155442001554520015500BF3A
:10376000012084F83D000020D0E7000038B5044671
:1037700016492068884216D100BF1548806940F478
:103780000060134988610846806900F40060009079
:1037900000BF00BF002211461920FFF7D1F8192001
:1037A000FFF7BEF811E02068B0F1804F0DD100BFE7
:1037B0000748C06940F001000549C8610846C06972
:1037C00000F00100009000BF00BF38BD002C014098
:1037D00000100240014691F83D00012801D001206F
:1037E0007047022081F83D00124B086898420BD0C8
:1037F0000868B0F1804F07D00F4B0868984203D09B
:103800000E4B086898420CD10868806800F00702E7
:10381000062A0CD00868006840F001000B681860A8
:1038200005E00868006840F001000B68186000209F
:10383000D6E70000002C01400004004000080040D2
:10384000014691F83D00012801D001207047022077
:1038500081F83D000868C06840F001000B68D8603E
:10386000124B086898420BD00868B0F1804F07D01F
:103870000F4B0868984203D00E4B086898420CD151
:103880000868806800F00702062A0CD00868006803
:1038900040F001000B68186005E00868006840F01F
:1038A00001000B6818600020D0E70000002C0140E8
:1038B00000040040000800402DE9F04104460D4698
:1038C000002700BF94F83C00012802D10220BDE887
:1038D000F081012084F83C0000BF022084F83D0004
:1038E0002068866826F0770626F47F462068866082
:1038F0002868502833D00CDC202850D004DC002865
:103900004BD0102851D149E0302849D040284CD123
:1039100039E060282DD0702807D0B0F5805F03D043
:10392000B0F5005F41D10DE041E0D5E902136A68CE
:10393000206801F06DFF2068866846F077062068F1
:10394000866034E0D5E902136A68206801F060FF00
:103950002068806840F480402168886027E0EA6839
:103960006968206801F068FF5021206801F05BFF62
:103970001DE0EA686968206801F071FF6021206835
:1039800001F051FF13E0EA686968206801F054FF14
:103990004021206801F047FF09E000BF00BF00BFE1
:1039A0002968206801F03FFF01E0012700BF00BF48
:1039B000012084F83D0000BF002084F83C0000BFD7
:1039C000384684E7704770B504462068C5682068AB
:1039D000066906F00200022819D105F0020002284B
:1039E00015D1401F21680861012020772068806977
:1039F00000F0030018B12046FFF7E4FF05E0204681
:103A000000F097F8204600F095F80020207706F0A7
:103A10000400042819D105F00400042815D1C0437E
:103A200021680861022020772068806900F44070D6
:103A300018B12046FFF7C6FF05E0204600F079F8F0
:103A4000204600F077F80020207706F008000828CC
:103A500019D105F00800082815D1C0432168086174
:103A6000042020772068C06900F0030018B12046C8
:103A7000FFF7A8FF05E0204600F05BF8204600F0C5
:103A800059F80020207706F01000102819D105F011
:103A90001000102815D1C043216808610820207744
:103AA0002068C06900F4407018B12046FFF78AFF13
:103AB00005E0204600F03DF8204600F03BF80020ED
:103AC000207706F0010048B105F0010030B16FF039
:103AD000010021680861204600F02EF806F0800001
:103AE000802809D105F08000802805D1C0432168D5
:103AF00008612046FFF7C2FD06F04000402809D1CA
:103B000005F04000402805D1C043216808612046E7
:103B100000F020F806F02000202809D105F0200050
:103B2000202805D1C043216808612046FFF7A7FD82
:103B300070BD70477047000010B504460449206806
:103B4000884203D101F0F4FE01F09EFE10BD00009A
:103B5000002C01407047704770B50446002520686E
:103B60004069C0F3C01594F84100212817D1B5B1C0
:103B700000BF00BF2168143151E8001F21F0800010
:103B80002168143141E80002002AF3D100BFA06B84
:103B900010B1A06BFEF7D6F8204602F057F8206867
:103BA0004069C0F3801594F84200222817D1B5B1BE
:103BB00000BF00BF2168143151E8001F21F0400010
:103BC0002168143141E80002002AF3D100BFE06B04
:103BD00010B1E06BFEF7B6F8204601F0F1FF0020CF
:103BE00070BD70472DE9F84F0446206805682068CD
:103BF000C668206847694FF00009CA4605F00F09FA
:103C0000B9F1000F0AD105F0200038B106F020000C
:103C100020B1204602F02DF8BDE8F88FB9F1000F71
:103C20007BD007F0010018B906F49070002874D01A
:103C300005F0010030B106F4807018B1606C40F0FE
:103C40000100606405F0040030B107F0010018B114
:103C5000606C40F00200606405F0020030B107F0D3
:103C6000010018B1606C40F00400606405F00800C9
:103C700048B106F0200010B907F0010018B1606CDF
:103C800040F008006064606C002845D005F020001A
:103C900028B106F0200010B1204601F0EAFF2068AC
:103CA0004069C0F3801A606C00F0080010B9BAF1E6
:103CB000000F2CD0204601F083FF2068406900F0FF
:103CC000400000B300BF00BF2168143151E8001F5D
:103CD00021F040002168143141E80002002AF3D1AC
:103CE00000BFE06B50B17748E16B4863E06BFEF7D3
:103CF00055F888B1E06B416B88470DE02046FFF72F
:103D000070FF09E009E02046FFF76BFF04E0204662
:103D1000FFF767FF002060647EE7206B012877D102
:103D200005F01000002873D006F010000028FAD02B
:103D300000BF002000902068006800902068406864
:103D4000009000BF00BF2068406900F040000028DC
:103D50005FD0E06B006840681FFA80F8B8F1000F90
:103D600055D0A08D404552DDA4F82E80E06B8069CF
:103D7000202843D000BF00BF21680C3151E8001F4C
:103D800021F4807021680C3141E80002002AF3D14F
:103D900000BF00BF00BF2168143151E8001F21F0AF
:103DA00001002168143141E80002002AF3D100BF6C
:103DB00000BF00BF2168143151E8001F21F040000E
:103DC0002168143141E80002002AF3D100BF20200D
:103DD00084F842000020206300BF00BF21680C313E
:103DE00051E8001F21F0100021680C3141E8000269
:103DF000002AF3D100BFE06BFDF7A4FF022060634F
:103E0000A08DE28D801A81B22046FFF7A4FE03E761
:103E100042E0A08DE18D401A1FFA80F8E08DD0B30A
:103E2000B8F1000F37D000BF00BF21680C3151E856
:103E3000001F21F4907021680C3141E80002002A33
:103E4000F3D100BF00BF00BF2168143151E8001F4B
:103E500021F001002168143141E80002002AF3D169
:103E600000BF202084F842000020206300BF00BF74
:103E700021680C3151E8001F21F0100021680C313D
:103E800041E80002002AF3D100BF022060634146EE
:103E90002046FFF760FEBFE605F0800030B106F077
:103EA000800018B1204602F045F8B5E605F0400064
:103EB00030B106F0400018B1204601F0B7FEABE685
:103EC00000BFA9E6095A000810B504460CB9012044
:103ED00010BDA06900B100E000BF94F8410028B90E
:103EE000002084F84000204600F02AF8242084F8BE
:103EF00041002068C06820F400502168C860204656
:103F000001F036FF2068006920F4904021680861C4
:103F10002068406920F02A00216848612068C06854
:103F200040F400502168C86000206064202084F8BC
:103F3000410084F842000020606300BFC8E7000031
:103F400010B586B0044600200290039004900590BE
:103F50002B492068884251D100BF2A48806940F42B
:103F60008040284988610846806900F480400190BB
:103F700000BF00BF00BF0846806940F004008861B0
:103F80000846806900F00400019000BF00BF48159A
:103F90000290022003900320059002A91A48FEF720
:103FA000B9F84FF48060029000200390049002A9B9
:103FB0001548FEF7AFF8154815490860002048601D
:103FC0000021134881608021C160002101614161AD
:103FD00081614FF48051C161FEF706F808B1FDF729
:103FE000CEFA00BF0A48E063446200BF00221146D7
:103FF0002520FEF7A5FC2520FEF792FC06B010BD9B
:104000000038014000100240000801405800024002
:104010005C02002070B504460D46164694F8420036
:1040200020280BD105B10EB9012070BD00202063FE
:1040300032462946204601F019FFF6E70220F4E750
:1040400070477047704700BFFEE701460868406947
:10405000C0F38020B0B16FF480600A685061002026
:104060000863202081F83D00002081F83E00086CA4
:1040700040F00400086400BF002081F83C0000BF4D
:10408000012070470020FCE72DE9F84304460D4667
:1040900017469846E66A082E04D0012E02D016F57F
:1040A000803F06D12068006840F480702168086075
:1040B00008E0206B122805D12068006840F4807069
:1040C000216808603B4600224FF001112046CDF8E0
:1040D000008000F06CF860B12068006800F4807027
:1040E000B0F5807F02D14FF4007020640320BDE85A
:1040F000F8832069B0F5804F04D105F0FE002168F7
:10410000086112E005F44070F02141EAE0102168F6
:10411000086143463A460B49204600F0A7F808B12B
:104120000120E4E7E8B22168086143463A460549C0
:10413000891F204600F09AF808B10120D7E7002037
:10414000D5E700000800010070B504460D4616468C
:1041500025E02046FFF779FF08B1012070BD681CFB
:10416000E8B1FEF77FF9801BA84200D8BDB92068EE
:104170004069C0F3800090B900202063202084F8BB
:104180003D00002084F83E00206C40F020002064B8
:1041900000BF002084F83C0000BF0120DEE720685B
:1041A0004069C0F380000028D3D00020D6E72DE975
:1041B000F04104460D4617461E46DDF8188038E0EB
:1041C000701CA8B3FEF74EF9A0EB0800B04200D86F
:1041D00076BBC5F3074001280AD120684069A9B21F
:1041E0000840A9B2884201D101200BE0002009E07B
:1041F00020688069A9B20840A9B2884201D1012093
:1042000000E00020B84214D100202063202084F870
:104210003D00002084F83E00206C40F02000206427
:1042200000BF002084F83C0000BF0120BDE8F08101
:10423000FFE7C5F3074001280AD120684069A9B209
:104240000840A9B2884201D101200BE0002009E01A
:1042500020688069A9B20840A9B2884201D1012032
:1042600000E00020B842ABD00020DFE72DE9F041AC
:1042700004460D4616461F4658E020684069C0F3C4
:104280008020E8B12068006840F400702168086070
:104290006FF480602168486100202063202084F84A
:1042A0003D00002084F83E00206C40F004002064B3
:1042B00000BF002084F83C0000BF0120BDE8F08171
:1042C000701C90B3FEF7CEF8C01BB04200D866BB9E
:1042D000C5F3074001280AD120684069A9B2084007
:1042E000A9B2884201D101200BE0002009E020683A
:1042F0008069A9B20840A9B2884201D1012000E03A
:10430000002090B900202063202084F83D00002088
:1043100084F83E00206C40F02000206400BF0020A4
:1043200084F83C0000BF0120C8E7FFE7C5F3074061
:1043300001280AD120684069A9B20840A9B2884280
:1043400001D101200BE0002009E020688069A9B2BA
:104350000840A9B2884201D1012000E000200028D5
:104360008BD00020AAE770B504460D46164625E01E
:104370002046FFF76AFE08B1012070BD681CE8B155
:10438000FEF770F8801BA84200D8BDB920684069CC
:10439000C0F3C01090B900202063202084F83D00B5
:1043A000002084F83E00206C40F02000206400BF14
:1043B000002084F83C0000BF0120DEE7206840694F
:1043C000C0F3C0100028D3D00020D6E73FB50022AC
:1043D000454991F85010444B03EB0111BDF80030F2
:1043E0000B80BDF80210404B93F850303E4C04EB6C
:1043F00003135980214691F85010234603EB011115
:10440000019B029CC1E901340399374B93F850306A
:10441000354C04EB0313D960214691F8501029B9AB
:104420009DF80010234683F8511031E000201DE074
:104430002D4951310A5C513901EB0211097A9DF87D
:104440000830994211DB284B93F8501005E0264BB9
:1044500051335D5C4C1C1D55491E8142F7DA9DF8B5
:104460000030214951310B5405E0401C1E4991F8A0
:1044700050108142DCDC00BF1B4991F85010814292
:1044800006D19DF80030184991F8504051310B5534
:10449000154991F85010144B03EB0111BDF8003091
:1044A0000B80BDF80210104B93F850300E4C04EB0B
:1044B00003135980214691F85010234603EB011154
:1044C000019B029CC1E901340399074B93F85030DA
:1044D000054C04EB0313D960214691F85010491C98
:1044E000234683F850103FBD9403002010B5FDF71C
:1044F00049F82149087108460079497948401E4920
:10450000097908401C4908700846007949794840F3
:104510001949097988431849487008460079487153
:104520000846007810B115480068886000201249DC
:104530008870C87008464078E0B1084680680F4926
:104540000968081AB0F5C86F06D30B4840780A49C5
:10455000C870002048700DE0074880680749096866
:10456000081AB0F5487F05D303484078024988709F
:104570000020487010BD0000D80200200400002078
:104580002DE9F041FFF7B2FF0020FDF73DF80446AA
:104590000120FDF739F807460220FDF735F80546FA
:1045A0000320FDF731F8064614B1012012490870C6
:1045B00015B102201049087016B103200E49087089
:1045C000012C0AD0022C13D10C48807A08B90120A2
:1045D00000E00020094988720AE009480078401C80
:1045E000032190FBF1F201FB12000549087000BFA6
:1045F00000BFBDE8F0810000480000205009002005
:10460000460000200EB50020009001900290234843
:10461000234908608115224881600121017300212E
:1046200001754FF46021C16100201D4948600421DB
:104630001B480161FDF7CCF908B1FCF7A0FF03208E
:104640000090012001900520029069461448FDF772
:104650000BF908B1FCF793FF0420009002200190B1
:1046600069460F48FDF700F908B1FCF788FF012003
:1046700000900320019069460948FDF7F5F808B15C
:10468000FCF77DFF02200090042001906946044859
:10469000FDF7EAF808B1FCF772FF0EBD00240140F7
:1046A0006400002008B500BF0E48406940F00100DA
:1046B0000C4948610846406900F00100009000BFC5
:1046C00000BF002211460B20FEF73AF90B20FEF73F
:1046D00027F9002211460F20FEF732F90F20FEF7CE
:1046E0001FF908BD0010024000B585B00020019000
:1046F00002900390049000BF3648806940F020008B
:10470000344988610846806900F02000009000BFAD
:1047100000BF00BF0846806940F004008861084679
:10472000806900F00400009000BF00BF00BF084691
:10473000806940F0080088610846806900F0080040
:10474000009000BF00BF002241F202412248FDF765
:1047500083FE0122D1032148FDF77EFE41F2024093
:10476000019001200290002003900220049001A9F2
:104770001948FDF7CFFC46F2F800019000200290A6
:104780000120039001A91448FDF7C4FC4FF4807088
:10479000019000200290039001A91048FDF7BAFC97
:1047A0004FF480500190002002900120039001A955
:1047B0000A48FDF7AFFC4FF4004001900120029041
:1047C000002003900320049001A90448FDF7A2FCF7
:1047D00005B000BD00100240000C0140000801407F
:1047E00010B50B480B4908600B4848600021094888
:1047F0008160C1604FF480410161002141618161AC
:10480000C1610162FDF734FE08B1FCF7B8FE10BDCE
:1048100000540040D8000020A086010010B50E48CA
:104820000E4908604FF48270486000210B48816097
:10483000C160016141614FF4007181611021C1616A
:1048400000210162416281620A21C162FEF736FDE8
:1048500008B1FCF794FE10BD003001402C0100208F
:1048600000B587B000200390049005900690019059
:1048700002901548154908604720486000211348F8
:1048800081604FF47A71C1600021016141618161F1
:10489000FEF738FF08B1FCF772FE4FF4805003902A
:1048A00003A90A48FFF708F808B1FCF768FE0020E2
:1048B0000190029001A90548FEF7E2FE08B1FCF75D
:1048C0005EFE07B000BD0000002C01408401002006
:1048D00000B587B0002003900490059006900190E9
:1048E00002904FF080401449086047204860002142
:1048F000114881604FF6FF71C16000210161816143
:10490000FEF700FF08B1FCF73AFE4FF48050039029
:1049100003A90948FEF7D0FF08B1FCF730FE0020DC
:104920000190029001A90448FEF7AAFE08B1FCF725
:1049300026FE07B000BD0000CC01002010B50B48DA
:104940000B4908604FF4E13048600021084881605D
:10495000C16001610C21416100218161C161FFF7EA
:10496000B3FA08B1FCF70BFE10BD0000003801409F
:10497000140200202DE9F04105460027072000F031
:104980004BF9044604F0400088B1602000F044F97F
:104990000646212E06DA32462946612000F016F935
:1049A000012703E0FF21E22000F078F900BF04F0C6
:1049B000100030B104F0010018B1FF21E12000F037
:1049C0006DF92146272000F069F93846BDE8F081ED
:1049D00070B504460D46052204492A2000F038F936
:1049E0002A462146A02000F033F970BD14000020B3
:1049F0001FB500F0E3FF0123022264216846FCF7A3
:104A0000A7FC6C463448BDF800100180BDF80200D8
:104A1000314948800846DDE901124160826003980F
:104A20002D49C86001231A46C8216846FCF790FC4E
:104A30002A48BDF800100180BDF8020027494880CF
:104A40000846DDE901124160826003982349C8608D
:104A50000123052232216846FCF77AFC2048BDF884
:104A600000100180BDF802001D4948800846DDE9BC
:104A700001124160826003981949C8600123052230
:104A800032216846FCF764FC1648BDF8001001802E
:104A9000BDF80200134948800846DDE90112416073
:104AA000826003980F49C8600123072232216846BB
:104AB000FCF74EFC0C48BDF800100180BDF8020068
:104AC00009494880DDE9010248608A600398C860AE
:104AD00000F04CFE1FBD0000EC030020FC03002092
:104AE0000C0400201C0400202C04002000BFFEE762
:104AF00000BFFEE71CB510A103C9CDE900010522E6
:104B00006946302000F0A4F805226946102000F024
:104B10005DF8002406E01DF80400A52800D003E09D
:104B2000601CC4B2052CF6DB00BF052C01D00120AF
:104B30001CBD0020FCE70000A5A5A5A5A500000060
:104B400070B505460E4600240CE0FFF7D3FF00B910
:104B50000AE021460DA001F02DFA641C4FF47A7092
:104B6000FDF7C4FA052CF0DD00BF052C04DD0CA018
:104B700001F020FA002070BD0EA001F01BFA3146B2
:104B8000284600F0A7F80120F5E700006E726632B3
:104B9000344C3031C1ACBDD3D6D0A3BA25640000AB
:104BA0006E726632344C3031B3F5CABCBBAFCAA7A3
:104BB000B0DC00006E726632344C3031B3F5CABCE2
:104BC000BBAFB3C9B9A6A3A1A3A100002DE9F041D1
:104BD00005460E461746002202210D48FDF73CFC13
:104BE00029460C4800F068FD8046002406E0FF21BD
:104BF000084800F061FD3055601CC4B2BC42F6DBD1
:104C0000012202210248FDF727FC4046BDE8F08161
:104C1000000C01402C01002070B504460022022146
:104C20000948FDF719FC2146084800F045FDFF2121
:104C3000064800F041FD0546012202210248FDF729
:104C40000BFC284670BD0000000C01402C01002028
:104C50002DE9F04105460C461646002202210D487A
:104C6000FDF7FAFB29460C4800F026FD8046002798
:104C700006E014F8011B084800F01EFD781CC7B2BE
:104C8000B742F6DB012202210248FDF7E5FB404670
:104C9000BDE8F081000C01402C01002070B50446F5
:104CA0000D46002202210948FDF7D6FB214608489F
:104CB00000F002FD06462946054800F0FDFC0122F1
:104CC00002210248FDF7C8FB304670BD000C0140D0
:104CD0002C0100203EB504460D4600200190002224
:104CE0004FF400414748FDF7B7FB052246492A200B
:104CF000FFF7AEFF052245493020FFF7A9FF01214C
:104D00002120FFF7CBFF01212220FFF7C7FF1A2147
:104D10002420FFF7C3FF29462520FFF7BFFF0F21FF
:104D20002620FFF7BBFF012C08D120213120FFF7FF
:104D3000B5FF0F212020FFF7B1FF5DE0022C08D165
:104D400020213120FFF7AAFF0E212020FFF7A6FF28
:104D500052E0032C28D1FF21E120FFF79FFFFF2124
:104D6000E220FFF79BFF0F212020FFF797FF502045
:104D70000190FF20012302AA01A900902448FEF718
:104D80003FFB73200190FF20012302AA01A900909C
:104D90001F48FEF735FB01213C20FFF77FFF06216E
:104DA0003D20FFF77BFF27E00E212020FFF776FF55
:104DB000FF21E120FFF772FFFF21E220FFF76EFFE6
:104DC00050200190FF20012302AA01A90090104861
:104DD000FEF716FB73200190FF20012302AA01A910
:104DE00000900B48FEF70CFB01213C20FFF756FF1B
:104DF00006213D20FFF752FF0122D1030148FDF7B4
:104E00002BFB3EBD000801401900002014000020CB
:104E10002C01002030B589B004460322202101A8CE
:104E2000FBF7A2F92022214601A8FBF78BF99DF898
:104E3000040035490978884264D19DF81600334949
:104E4000097888425ED1032031490870142201A9F3
:104E50003048FBF777F92F49C87BFBF7D8FD0546AB
:104E60002D49FBF705FC2D4908602A49B1F91000CE
:104E7000FBF7C4FD05462A49FBF7FAFB2949086000
:104E80002449B1F90200FBF7B9FD05462649FBF7B5
:104E9000EFFB264908601F49B1F90400FBF7AEFD9E
:104EA00005462149FBF7E4FB204948601949B1F95F
:104EB0000600FBF7A3FD05461B49FBF7D9FB1B4981
:104EC00088601449B1F90800FBF798FD05461649BA
:104ED000FBF7CEFB164908600E49B1F90A00FBF753
:104EE0008DFD05461049FBF7C3FB11494860094990
:104EF000B1F90C00FBF782FD05460B49FBF7B8FB47
:104F00000B49886009B030BD32000020330000201A
:104F1000540000206C090020000048425800002086
:104F20000000C8425C0000200000A0428009002070
:104F30008C09002000B589B008480078084908703D
:104F40000848007848761C2201A8FBF7FBF82022CD
:104F500001A90548FBF7F6F809B000BD30000020B4
:104F60005009002031000020300900202DE9F04FC9
:104F70008BB0C64801F042FDC549C44801F048FE67
:104F8000C4494868FBF772FD044622460B46C2A19D
:104F900003A801F01FF803AB28220021BB4801F051
:104FA000FFFDBC498868FBF761FD044622460B46BD
:104FB000BBA103A801F00EF803AB33220021B348D4
:104FC00001F0EEFDB3490868FBF750FD04462246A8
:104FD0000B46B5A103A800F0FDFF03AB3F22002163
:104FE000AA4801F0DDFDB2480288B2A103A800F092
:104FF000F1FF03AB19220021A44801F0D1FDAF4815
:10500000007820B1012839D002287DD16AE0AC486F
:105010000078032809D1ABA103A800F0DBFF03ABA4
:105020000A224621994801F0BBFDA848807B03284D
:1050300009D1A7A103A800F0CDFF03AB1E223C219C
:10504000924801F0ADFDA5A103A800F0C3FF03AB9A
:105050000A2200218D4801F0A3FD0A200090944807
:10506000008800EB8000C400E01704EB105003132D
:1050700000220A21854801F0CEFCD2E09849486818
:10508000FBF7F4FC044622460B4696A103A800F069
:10509000A1FF03AB0A223C217C4801F081FD90492D
:1050A0000868FBF7E3FC044622460B4690A103A8E0
:1050B00000F090FF03AB15223C21744801F070FD15
:1050C00087498868FBF7D2FC044622460B468BA131
:1050D00003A800F07FFF03AB20223C216B4801F0C6
:1050E0005FFD9EE088A103A800F074FF03AB0A22D5
:1050F0003C21664801F054FD8448B0F90000FBF7FC
:105100008BFC0646002200E08AE0814BFBF795FB12
:10511000044600227F4BFBF702FC804600227C4BBA
:10512000FBF7E4FA8246FBF788FC80B202900A2083
:10513000009000225A215548029B01F06CFC76A198
:1051400003A800F047FF03AB15223C214F4801F0B4
:1051500027FD7248B0F90000FBF75EFC8046002294
:105160006B4BFBF76AFB064600226A4BFBF7D7FB4B
:1051700004460022664BFBF7B9FA8246FBF75DFC5A
:1051800080B202900A2000900B225A213F48029BD5
:1051900001F041FC62A103A800F01CFF03AB202238
:1051A0003C213A4801F0FCFC5E48B0F90000FBF7F6
:1051B00033FC80460022564BFBF73FFB064600229D
:1051C000544BFBF7ACFB04460022514BFBF78EFA25
:1051D0008246FBF732FC80B202900A200090162231
:1051E0005A212A48029B01F016FC3CA103A800F0BA
:1051F000F1FE03AB0A220021244801F0D1FC0A2071
:1052000000902B48008800EB8000C400E01704EBFE
:105210001050031300220A211C4801F0FCFB00E09F
:1052200000BF00BF4048807A01280AD13FA103A8EF
:1052300000F0D0FE03AB3E225A21144801F0B0FC2E
:105240000CE03948807A48B93AA103A800F0C2FEC0
:1052500003AB3E225A210D4801F0A2FC36480068FB
:10526000FBF704FC044622460B4634A103A800F0D9
:10527000B1FE03AB34223C21044801F091FC034809
:1052800001F0BDFC0BB0BDE8F08F00007C080020F1
:10529000BD880008800900205025362E31660000A8
:1052A0005225362E316600005925362E3166000013
:1052B0003C000020563A25346400000046000020DF
:1052C00054000020594B5F524F4B00006C090020E6
:1052D000426F64795F524F4B0000000053000000A2
:1052E0008C090020505F613A25342E3066000000A2
:1052F000525F613A25342E3066000000595F613AF2
:1053000025342E3066000000505F43003800002036
:10531000000034400000A040525F43003A000020EB
:10532000595F4300360000205009002053544F506D
:105330000000000052554E0058000020563A253318
:105340002E326656000000007047000008B508497C
:105350000968C9084FF47A72B1FBF2F14143009138
:1053600000BF00BF00994A1E00920029F9D108BD74
:105370001000002010B50648FCF7E8F9C820FCF73B
:10538000B5FE042203490248FCF71CFC10BD0000D6
:10539000640000203E000020002066E0344931F81F
:1053A0001010B1F5806F09DD314931F81010B1F5F9
:1053B000406F01DD012103E0002101E04FF0FF31EA
:1053C00000EB40022B4B03EB8202517002280CD100
:1053D00000EB40011A4602EB81014978494249B28B
:1053E00000EB400203EB8202517000EB4001214AC6
:1053F00002EB810191F9011000EB40021D4B03EB20
:10540000820292F90020514000EB400203EB82023D
:1054100092F90120114000EB400203EB82029170EF
:1054200000EB40011A4602EB810191F9011000EBFB
:10543000400203EB820292F90020514000EB40024F
:1054400003EB820292F90120914300EB400203EB4F
:105450008202D17000EB40011A4602EB81014978CB
:1054600000EB400203F82210401C042896DB704732
:105470003E0000206403002010B5FFF78DFF0021DF
:105480000846FCF73FF9012804D141023348FCF7F4
:10549000D9FF09E000210846FCF734F9401C18B98F
:1054A00002212E48FCF7CEFF01210020FCF72AF94B
:1054B000012804D141022948FCF7C4FF09E0012179
:1054C0000020FCF71FF9401C18B902212348FCF703
:1054D000B9FF02210020FCF715F9012804D141028F
:1054E0001E48FCF7AFFF09E002210020FCF70AF993
:1054F000401C18B902211948FCF7A4FF0321002021
:10550000FCF700F9012804D141021448FCF79AFF86
:1055100009E003210020FCF7F5F8401C18B902212E
:105520000E48FCF78FFF0E4B0E4A0F490F48FCF751
:1055300083F80E48008801B20D48C1800A48B0F9CE
:1055400000100B4801810748B0F900000849488065
:105550000348B0F900100648818010BD000C0140DE
:105560003A00002038000020360000203C000020D7
:105570005009002010B5FBF7F7FF10BD10B5FBF781
:10558000D3FF10BD10B5FEF7FBFFFFF775FF10BD91
:1055900010B5FBF717FF10BD7047F8B504460E466F
:1055A00015463346012202212046009500F018F8E6
:1055B00028B1606D40F0200060650320F8BD3346DF
:1055C000002280212046009500F00AF828B1606D85
:1055D00040F0200060650320F0E70020EEE70000C7
:1055E0002DE9F84F04460D4690461E46DDF82890FA
:1055F000FCF738FFA0EB0900371AFCF733FF8246AF
:105600002C480068C0F3CB307843009045E0701C14
:10561000002842D0FCF726FFA0EB0A00B84200D2D7
:10562000A7BB2068406820F0E000216848606068FF
:10563000B0F5827F0DD1A068B0F5004F03D0A0680F
:10564000B0F5806F05D12068006820F04000216827
:105650000860A06AB0F5005F0DD100BF2068006847
:1056600020F40050216808602068006840F4005071
:105670002168086000BF012084F8510000BF0020AD
:1056800084F8500000BF0320BDE8F88FFFE70098C2
:1056900000B900270098401E0090206880682840CC
:1056A000A84201D1012000E000204045AFD10020F8
:1056B000EAE70000100000203EB505460C460194C4
:1056C000FF20012302AA01A900902846FDF798FEB9
:1056D00008B1FF2002909DF808003EBD704710B54C
:1056E000FDF7AEF810BD00B593B0282109A8FAF770
:1056F00042FD142104A8FAF73EFD0020009001901D
:10570000029003900120099000040A9000200B9061
:1057100001200D9002201090C10311914FF4E0116F
:10572000129109A8FDF798FB08B1FBF728FF0F209D
:10573000049002200590002006904FF480600790AE
:1057400000200890022104A8FDF762FA08B1FBF7D7
:1057500016FF02200090002002906846FDF7C0F975
:1057600008B1FBF70CFF13B000BD704701200249E0
:1057700081F85600704700009403002010B50248DD
:10578000FEF721F910BD00008401002010B5026869
:105790001C4B984208D0B0F1804F05D01A4B98426C
:1057A00002D01A4B984203D122F070024B681A4380
:1057B000144B984208D0B0F1804F05D0124B98425C
:1057C00002D0124B984203D122F44072CB681A43A4
:1057D00022F080034C6943EA040202608B68C362D2
:1057E0000B688362074B984201D10B690363012365
:1057F0004361036903F001031BB1036923F0010353
:10580000036110BD002C014000040040000800406E
:1058100030B50C46816821F47F4142EA03252543D7
:105820002943816030BD0A46816821F0700142F051
:10583000070319438160704730B50B461446026A6E
:10584000056A25F001050562816921F0F00141EA50
:10585000041122F00A021A438161026230BD30B5A0
:105860000B461446026A056A25F010050562816937
:1058700021F4704141EA043122F0A00242EA03120D
:105880008161026230BD000070B5FF26274890F8A4
:105890005600012848D1002540E024485130445D9D
:1058A000513800EB04108079012836D11F4800EBF5
:1058B000041080884FF47A7191FBF0F01B4901EBE2
:1058C00004114988884228DCFF2E06D0174800EBD7
:1058D0000410007AB04200D025E00020134901EB0B
:1058E00004114880052C13D2DFE804F00306090CEC
:1058F0000F00FFF73FFE0BE0FFF740FE08E0FFF769
:1059000041FE05E0FFF744FE02E0FFF745FE00BF61
:1059100000BF064800EB0410067A6D1C034890F89F
:105920005000A842B9DC00BF70BD00009403002005
:105930000B4890F85600012810D1002009E00849D2
:1059400001EB00114988491C054A02EB0012518005
:10595000401C034991F850108142F0DC7047000070
:10596000940300200021144A126851621249096808
:10597000096841F00101104A1268116000BF0E4928
:105980000968496A8142FAD300BF0B490968096A6C
:1059900041F21112114069B907490968096A921068
:1059A000114039B904490968096821F00101024A26
:1059B0001268116000BF7047CC010020002011491F
:1059C00081F8500081F8560000BF18E000210D4A10
:1059D00002EB0012518005220A4951310A54642118
:1059E000084A02EB001211720121064A02EB001272
:1059F00051720021034A02EB0012D160401C0528BD
:105A0000E4DB70479403002070B505466C6A002003
:105A1000E085E0842046FEF7E4F870BD70B50646E8
:105A20000025746A20684069C0F3C01594F84100ED
:105A3000212805D125B10020E084204600F006F998
:105A400020684069C0F3801594F84200222805D1EF
:105A500025B10020E085204600F0B2F8606C40F0EF
:105A6000100060642046FEF7BCF870BD70B50546B6
:105A70006C6A2868006800F02000002842D1E085A8
:105A800000BF00BF21680C3151E8001F21F4807075
:105A900021680C3141E80002002AF3D100BF00BFA9
:105AA00000BF2168143151E8001F21F00100216876
:105AB000143141E80002002AF3D100BF00BF00BF4B
:105AC0002168143151E8001F21F040002168143191
:105AD00041E80002002AF3D100BF202084F84200F0
