:020000040800F2
:10000000300A002001010008AD3900082528000849
:10001000ED3500089D0F0008354500080000000080
:100020000000000000000000000000009D400008EB
:10003000F10F000800000000633F0008B540000811
:100040001B0100081B0100081B0100081B01000820
:100050001B0100081B0100081B0100081B01000810
:100060001B0100081B0100081B0100081B01000800
:100070001B0100081B0100081B0100081B010008F0
:100080001B0100081B0100081B0100081B010008E0
:100090001B0100081B0100081B0100081B010008D0
:1000A0001B010008414100081B0100081B0100085A
:1000B0004D4100081B0100081B0100081B0100083E
:1000C0001B0100081B0100081B0100081B010008A0
:1000D0001B0100081B0100081B0100081B01000890
:1000E0001B0100081B0100081B010008DFF80CD0F1
:1000F00000F042FC0048004729560008300A002062
:100100000648804706480047FEE7FEE7FEE7FEE7B1
:10011000FEE7FEE7FEE7FEE7FEE7FEE72F41000809
:10012000ED0000082DE9F0410024061B254671F181
:10013000000605DA01240027D0EB070067EB010178
:10014000161E73F1000605DA0027D2EB070201251F
:1001500067EB030300F098F986460E4617469C4667
:10016000AC4204D00025D0EB050E65EB010624B1AE
:100170000020D2EB000760EB030C704631463A4694
:100180006346BDE8F081202A04DB203A21FA02F020
:100190000021704721FA02F3D040C2F120029140C1
:1001A00008431946704740EA01039B0703D009E062
:1001B00008C9121F08C0042AFAD203E011F8013B53
:1001C00000F8013B521EF9D27047D2B201E000F8AC
:1001D000012B491EFBD270470022F6E710B51346EB
:1001E0000A4604461946FFF7F0FF204610BDF0B45A
:1001F00080EA0102D40F4200B2EB410F02D2024664
:10020000084611464A0042D0C30DDDB2C1F3C752C1
:10021000AD1A202D35DAC1F3160141F4000204B104
:100220005242C5F1200602FA06F12A411044B3EB0E
:10023000D05F23D0C4B1012DA0EBC35009DCF0BCCA
:100240004FF0004202EAC352DBB200F5000000F0BA
:1002500055B9400000F1807000EBC350A0F18070F0
:1002600040EAD170490009E0490841EAC071A0EBB9
:10027000C35000F50000400800EBC350F0BC00F094
:1002800034B96142012202EB4101001BF6E7F0BCE8
:10029000704781F00041AAE780F00040A7E780EABC
:1002A000010210B502F00043400022D04A001FD0E6
:1002B000010E01EB1261C0F35600C2F3560240F486
:1002C000000042F40002A0FB022000047F39140465
:1002D00000D0401C50EA124001D44000491EC2B276
:1002E0000C0604EBD010401C4008802A02D003E02A
:1002F000002010BD20F00100002900DA0020184382
:1003000010BD30B480EA010202F0004530F0004236
:1003100021F0004013D090B1C30DD40DC2F31601EB
:10032000C0F31600E41A41F4000140F400027D34E9
:10033000914201D3641C00E04900002C02DA30BC79
:10034000002070474FF400000023914201D3891A26
:10035000034340084FEA4101F7D151B1914202D124
:100360004FF0004105E002D24FF0010101E06FF0D3
:10037000010103EBC450284430BC00F0B6B8420081
:1003800005D0C0F3C7525242914201DC00207047B1
:1003900000EBC1507047C10F80EAE0700844CA0703
:1003A0009623002100F0AAB896230022114600F0FF
:1003B000A5B800F0004220F00040C10DC0F31600C7
:1003C00040F400007F2901DA00207047962903DC01
:1003D000C1F19601C84001E096398840002AF4D066
:1003E0004042704720F00040C10DC0F3160040F4B9
:1003F00000007F2901DA00207047962903DCC1F153
:100400009601C840704796398840704700F0004216
:1004100030F000400AD0C10D01F56071C0F3160044
:1004200042EA0151C20840071143704700200146CB
:1004300070470000002801DBC0F10040002901DB0B
:10044000C1F1004181427047002801DBC0F100404A
:10045000002901DBC1F100418842704730B50B46ED
:10046000014600202022012409E021FA02F59D42E4
:1004700005D303FA02F5491B04FA02F52844151EB8
:10048000A2F10102F1DC30BD2DE9F05F054600204C
:1004900092469B4688460646814640241BE02846F5
:1004A000414647462246FFF76EFE53465A46C01A5B
:1004B000914110D311461846224600F06FFA2D1ACA
:1004C00067EB01084F4622460120002100F066FA42
:1004D00017EB00094E41201EA4F10104DFDC484661
:1004E00031462A464346BDE8F09F0029A8BF704721
:1004F000401C490008BF20F00100704710B4B0FA5A
:1005000080FC00FA0CF050EA010404BF10BC7047F4
:1005100049B1CCF1200421FA04F411FA0CF118BF0E
:10052000012121430843A3EB0C01CB1D4FEA0061DD
:100530004FEA102042BF002010BC704700EBC350B0
:1005400010440029A4BF10BC7047401C490008BFDC
:1005500020F0010010BC7047F0B4002802DCF0BCB1
:1005600000207047C0F3C751C0F3160040F40000EC
:10057000CA0701D14000491E3F2202EB610500225B
:1005800011464FF4000626FA01F31344D4188442AE
:1005900001D8001B1A464000491C1729F3DD510001
:1005A000814202D24FF0FF3100E0002102EBC55042
:1005B000F0BCFFF79ABF2DE9FE4F804681EA0300A9
:1005C000C00F0C46009021F0004123F00045B8EB2D
:1005D0000200A94105D24046214690461C460B46E2
:1005E000024623F00040104347D0270DC7F30A000E
:1005F000C3F30A510290401A019040286BDAC3F30A
:10060000130040F4801B0098924620B10023D2EBE7
:10061000030A63EB0B0B01985946C0F140025046A8
:1006200000F0BCF906460D4650465946019A00F0C6
:10063000C4F910EB08006141002487EA115284EAF2
:10064000E7731A4340D0009A62B3019A012A4FEA35
:10065000075215DC001B61EB02014FF0004202EA79
:100660000752CDE90042001C41F5801132462B466D
:1006700000F0C4F903B0BDE8F08F40462146F9E729
:10068000001B61EB0201001C41F5801300185B4167
:100690002018A2F5001747EB030140EAD570B61900
:1006A0006D4111E06D084FEA360645EAC0754FEA24
:1006B0000752001B61EB0201001C41F58011490843
:1006C0004FEA30000019514132462B4603B0BDE8D5
:1006D000F04F00F084B90098012240000023D0EBD5
:1006E000020263EBE073009821464FEAE074B8EB36
:1006F000000061EB0401E9E783F000435BE781F070
:10070000004158E72DE9FE4F81EA030404F000445C
:1007100021F0004100944FF0000B23F0004350EA19
:1007200001045ED052EA03045BD0C3F30A54C1F360
:100730000A552C44A4F2F3340194A0FB0254C1F3F3
:10074000130141F48011C3F3130343F4801301FB3D
:10075000024400FB034E840A970A44EA815447EAA4
:100760008357A4FB076802958D0A05FB07854FEAAE
:10077000932C04FB0C542705029D4FEA065847EAC8
:100780001637B5EB08056EEB070C870E920E47EA9D
:10079000811742EA8312A7FB0201B6EB0B0164EB5F
:1007A00000042B0D43EA0C335E1844EB1C50DA4670
:1007B0005146E7FB0201C5F313044FEA0B3343EA4A
:1007C00014534FEA0432019C43EA0603A4F10C04DB
:1007D0000294009CCDE900B400F010F903B0BDE82C
:1007E000F08F00200146F9E72DE9F04D81EA03047E
:1007F00004F0004B21F0004514464FF0000A23F0AE
:10080000004150EA050220D054EA01021DD0C5F390
:100810000A570246C5F31303C1F31300C1F30A5686
:1008200040F4801543F48013A7EB0608101BD6464E
:1008300008F2FD3873EB050002D308F1010801E06E
:1008400092185B41B8F1000F03DA00200146BDE8C1
:10085000F08D00204FF48011064684460EE0171BF1
:1008600073EB050705D3121B63EB050306434CEA44
:10087000010C49084FEA300092185B4150EA010729
:10088000EDD152EA030012D082EA040083EA0501A6
:10089000084305D0101BAB4106D20122002306E01D
:1008A00000224FF0004302E06FF0010253101AEBF8
:1008B00006004CEB085110EB0A0041EB0B01BDE8C0
:1008C000F04D00F08CB8C1F30A52C1F3130140F2AD
:1008D000FF3341F480119A4202DA0020014670474A
:1008E00040F233439A42A2F2334202DC5242FFF713
:1008F0004ABC00F053B810B500F0004420F00040AE
:10090000C20DC0F3160040F400007F2A07DA7D2AEA
:1009100000DA7D22763A00FA02F1002008E0962AF9
:1009200009DCA2F1760100FA01F1C2F19602D04091
:10093000FFF7DBFD01E0963A9040002C00D04042EA
:1009400010BD000030B5041E71F1000404DB4FF04F
:100950000044404264EB0101141E73F1000405DB06
:100960001C464FF00043524263EB0403994208BF18
:10097000904230BD00207047064C074D06E0E0680D
:1009800040F0010394E8070098471034AC42F6D3D6
:10099000FFF7B0FB3461000854610008202A04DB33
:1009A000203A00FA02F1002070479140C2F1200382
:1009B00020FA03F3194390407047202A06DBCB1737
:1009C000203A41FA02F043EAE07306E041FA02F30A
:1009D000D040C2F12002914008431946704710B53B
:1009E000141E73F1000408DA401C41F10001921852
:1009F0005B411A4301D120F0010010BD2DE9F04DFB
:100A000092469B4611B1B1FA81F202E0B0FA80F24F
:100A100020329046FFF7C2FF04460F4640EA0A0024
:100A200041EA0B0153465A46084313D0114653EA94
:100A3000010019D0C8F140025046FFF7A4FB05465B
:100A40000E46504659464246FFF7A8FF084305D0D8
:100A5000012004E020463946BDE8F08D0020054322
:100A600046EAE0762C4337430A986305E40AA0EB94
:100A700008000022FD0A44EA47540A3002D500204B
:100A80000146E9E7010510196941DDE9084500194A
:100A90006941BDE8F04DA2E770B504460068816881
:100AA000C943C90717D1816821F00101816000F0B5
:100AB000BFFD05460AE000BF00F0BAFD401B02285A
:100AC00004D920688068C043C00706D020688068C9
:100AD000C043C007F0D0002070BDA06A40F01000F5
:100AE000A062E06A40F00100E062012070BD0000F9
:100AF000F8B500260446009600688168C943C90716
:100B00002DD0816841F001018160164816490068C6
:100B1000B0FBF1F000E0401E00900028FBD100F097
:100B200087FD054616E000BF00F082FD401B02284D
:100B300010D920688068C043C0070BD0A06A40F07D
:100B40001000A062E06A40F00100E06284F82460D6
:100B50000120F8BD20688068C043C007E4D10020B0
:100B6000F8BD00000C00002040420F0010B504F05A
:100B700075FC02F0DDFE2821032002F03DFF1E205F
:100B800000F04AFC04F010FD00F0B4F80149012027
:100B9000887210BD4405002010B5044688B018487E
:100BA000ADF8041090F850008DF800008DF8082082
:100BB00001208DF8090000208DF806300390BDF863
:100BC0000000ADF81000BDF80200ADF81200019869
:100BD0000299CDE90501039B07930A460146049853
:100BE00002F0D2F8BDF800002080BDF8020060805D
:100BF00001980299C4E901010398E06008B010BDB2
:100C0000880500202DE9F047054608A8174690E81A
:100C1000000711480A46834201DA00F0E3F80F4862
:100C20000F4C104E8168C4E90751406804F1340547
:100C3000C5E907202846716803F03AF92046316873
:100C400003F036F9616AC8F80010696AC9F8001043
:100C5000CAF80070BDE8F08700007A446005002003
:100C6000C40300206C050020F0B5DFF874C0082B29
:100C70000CF1340404F1340504F1680604F19C0716
:100C800009D2DFE803F00804090C0F121518144B01
:100C9000343B83E80700F0BD8CE80700F0BD84E832
:100CA0000700F0BD85E80700F0BD86E80700F0BD4D
:100CB00087E80700F0BD0020CCF80000CCF8040065
:100CC000CCF8080020606060A06028606860A860C0
:100CD00030607060B06038607860B860F0BD00006F
:100CE000C40300200248037E0C3007C8FFF7BCBFD6
:100CF000440500202DE9FE432A4B2B49CDE9001382
:100D00002748002202901146284803F051F8244851
:100D1000284D3430264C0095CDE90140DFF898800D
:100D2000264E274F434632460021384603F040F80E
:100D30001B4800956830CDE901404346324600210A
:100D4000384603F035F8164A1F489C321D498DE895
:100D50000700DFF87890002243461146484603F02A
:100D600027F80F481B4DD030194C0095CDE90140B4
:100D7000194EDFF868804FF0814733463A464146C6
:100D8000484603F015F816480095CDE90140334672
:100D90003A464146484603F00BF8BDE8FE830000A2
:100DA0009003002000009643000096C300004040DE
:100DB0000000FA430000FAC300803B45CDCCCC3D97
:100DC000CDCC6C4000007A4400007AC40000C041E1
:100DD00000409C4500409CC500007A45CDCC4C3D70
:100DE0009404002006490020886134398861343930
:100DF00088619C39886134318861343188617047F9
:100E0000940400202DE9F041194850F8025F46682B
:100E100028B24042FFF7BFFA164F3946FFF73FFAB4
:100E20006FF00A084146FFF7AAFA134C2060281415
:100E30004042FFF7B0FA3946FFF731FA4146FFF773
:100E40009EFA60603014FFF7A6FA0C49FFF727FA04
:100E50004146FFF794FAA06030B241F6583148435A
:100E6000C11700EB1150000BA081BDE8F08100001C
:100E7000440500200000F041780500200000C84231
:100E80002DE9F05F434EDDF834B0DDF828A006F11F
:100E90003407F061A6F134043F48F961E26101686A
:100EA00031624168396280684FF07E552062984611
:100EB0002946304602F090FF2946384602F08CFF62
:100EC0002946204602F088FF4046FFF76DFA646A23
:100ED00081462146FFF7DDF9D6F8248005464146D4
:100EE000FFF785F97F6A3946FFF781F9FFF761FA65
:100EF00006B228464146FFF7CCF93946FFF7C9F953
:100F0000FFF757FA05B248462146FFF770F98146C8
:100F10004146FFF7BEF93946FFF769F9FFF749FA8D
:100F200004B248464146FFF762F93946FFF7B1F986
:100F3000FFF73FFA07B241F65830002E03DD864234
:100F400003DA314602E0002100E00146002D03DD16
:100F5000854203DA2A4602E0002200E00246002C25
:100F600003DD844203DA234602E0002300E0034667
:100F7000002F03DD874202DA384600E00020AAF89D
:100F800000100B990A800C990B80ABF80000BDE8AB
:100F9000F09F0000600400206C050020FEE70000C8
:100FA00010B50F4C0F48A1881E2901D2012100E085
:100FB000022101700C4802F084FA01280AD0A088AE
:100FC000401CA08002F08AFEBDE8104020210748A6
:100FD00002F072BA0020A080034802F05BFEF1E745
:100FE00058000020B8000020F00400201005002068
:100FF000704700000F4810B5807A012809D00E4BC9
:10100000D3E900109A689B89BDE810409BB202F0BA
:10101000EFBA0A4C002020806080A080E080FFF7BB
:10102000E1FEE388A28861882088BDE8104002F0D4
:1010300029BB00004405002078050020BA000020EC
:101040007CB509488068FFF7E1F9044607480D467A
:10105000C068FFF7DBF902460B4605A0CDE9004565
:1010600003F06CFA7CBD000060050020C800002081
:1010700025662C25660D0A0072B6FEE710B5002025
:1010800001F0E8FC064A02F10801081F01F064FEC5
:10109000044ABDE81040111F081F01F069BE00009E
:1010A000600500207405002010B50A4800F054F9CE
:1010B000084800F093F880B2FFF776F90649FFF789
:1010C000EEF80121FFF75BF9BDE810400349FFF797
:1010D00018B90000E80000203333534000F07F458A
:1010E000F8B50024009490F824202546012A12D057
:1010F000012280F824204A681F23072A0DD206689F
:10110000776B521E02EB820293409F430B68934021
:101110001F43776319E00220F8BD06680D2A0AD242
:10112000376BD21F02EB820293409F430B689340C0
:101130001F43376309E0F76A0D3A02EB82029340DE
:101140009F430B6893401F43F7620A6807230668B2
:101150000A2A0AD3F7680A3A02EB420293409F43F5
:101160008B6893401F43F76008E0376902EB420247
:1011700093409F438B6893401F4337610A68102A4E
:1011800001D0112A20D1124B02689A4217D19368DC
:101190001B0219D4936843F4000393600968102973
:1011A00012D10C490C4A0968B1FBF2F101EB810143
:1011B000490000E0491E00910029FBD104E0816A4A
:1011C00041F020018162012480F824502046F8BDBE
:1011D000002401400C00002040420F000068C06C59
:1011E000704700002DE9F0414FF0000704003D4634
:1011F0007ED0A06A002628B9E66284F824602046E2
:1012000000F07EF82046FFF747FCA16AC90600D42B
:1012100020B1A06A40F01000A06269E0A16A21F448
:10122000885141F00201A1626268E169237B0A43AF
:1012300047EA43010A43A1684FF48077B94209D0D5
:10124000012907D05FF0000194F814C0BCF1010F30
:1012500002D00AE03946F7E7F3B1A36A43F020036E
:10126000A362E36A43F00103E3622368D3F804C096
:101270002CF4694C4CEA010CC3F804C021688B685B
:10128000DFF870C003EA0C0313438B60A168B94216
:101290000BD0012909D00CE0DFF85CC0A3690CEB8E
:1012A00043330B4343F40061DFE7218A0D05A5F5C5
:1012B00080152168CB6A23F470032B43CB6221682D
:1012C00089680E4B1940914208D1E662A16A21F06B
:1012D000020141F00101A162BDE8F081A06A20F0A5
:1012E000020040F01000A062E06A40F00100E062FD
:1012F0000120F1E7FDF7E1FF00E0FFFFFE0E1FFF19
:1013000000B585B000210091019102910391006820
:101310000E49884218D10E48816941F400718161FB
:10132000816901F400710491816941F004018161D6
:101330008069694600F004000490022000900320B8
:101340000190044800F07AF805B000BD0024014087
:10135000001002400008014070B5044690F82400D7
:1013600001280DD0012084F824002046FFF7C0FB9F
:1013700002004FF0000005D084F82400104670BD34
:10138000022070BDA16A40F20123994341F48071AB
:10139000A1621F4D23681F49AB4218D10E6816F495
:1013A000702F14D0A66A46F48016A6620E687605E1
:1013B00005D5A66A26F4005646F48056A662A66AAB
:1013C000F6040AD5E66A26F00606E66206E0A66A94
:1013D00026F48016A6625E68E9E7E06284F82400DD
:1013E0006FF00200186020688368C3F34243072B44
:1013F00005D1A84208D1096811F4702F04D0816882
:1014000041F480118160B9E7816841F4A001F9E7F6
:10141000002801400424014070B5044600F008F99A
:101420000546601C02D004480078044400F000F92E
:10143000401BA042FAD370BD000000202DE9F84FF8
:10144000DFF8B8910024A9F1040B23460F2709F116
:10145000040AABF1040EC9E00125A5402A40AA42C6
:101460007DD1674ED1F804C0ACEB0608B44532D04C
:1014700014DCBCF1030F3AD009DCBCF1000F2AD018
:10148000BCF1010F1CD0BCF1020F31D11DE0BCF149
:10149000110F17D0BCF1120F2AD119E0B8F5881F2F
:1014A00019D006DCB8F5803F15D0B8F5801F1FD1E4
:1014B00011E0B8F5001F0ED0B8F5041F18D10AE0EE
:1014C000CB6815E0CB681B1D12E0CB6808330FE03A
:1014D000CB680C330CE08B682BB1012B4FF0080369
:1014E00003D0456104E0042302E0056100E000232D
:1014F000FF2A01D8064601E000F104064FEA840500
:1015000001D9A5F12005D6F8008007FA05FC28EAE4
:101510000C0803FA05F548EA0508C6F800804D688E
:10152000ED0062D5374DAE6946F00106AE61AD699A
:1015300024F0030605F001050095334D06EB050C7C
:10154000DCF80850A607360F07FA06F825EA080562
:10155000DFF8B880404503D14FF0000817E044E0C1
:10156000DFF8AC80404502D14FF001080FE0DFF812
:10157000A480404502D14FF0020808E0DFF89880CF
:10158000404502D14FF0030801E04FF0040808FA8B
:1015900006F848EA0508CCF808804D68D9F80060DC
:1015A000ED024D4601D5164300E096432E604D688E
:1015B000DAF80060AD02554601D5164300E09643C7
:1015C0002E604D68DBF80060AD035D4601D5164323
:1015D00000E096432E604D68DEF80060ED0375462E
:1015E00001D5164300E096432E60641C0D682A4620
:1015F000E5407FF431AFBDE8F88F000008040140FA
:1016000000001110001002400000014000080140DD
:10161000000C0140001001400014014080680840A7
:1016200000D0012070470AB1016170470904FBE74F
:10163000014880687047000000000020024881686F
:10164000027811448160704700000020074810B5FF
:10165000016841F010010160032000F075F80F20CF
:1016600000F006F800F024F8002010BD0020024031
:1016700070B50D4D04464FF47A712878B1FBF0F047
:101680000A490968B1FBF0F000F0DEFC48B9102C03
:1016900007D200222146501E00F036F800206C6070
:1016A00070BD012070BD0000000000200C00002073
:1016B0000C4808B5816941F001018161816901F03F
:1016C00001010091C16941F08051C161C06900F020
:1016D000805000900448416821F0E06141F00071C1
:1016E000416008BD0010024000000140002809DBF5
:1016F00000F01F02012191404009800000F1E0202C
:10170000C0F8001170470000F0B40E4B1B680C4687
:10171000C3F30223C3F10705042D00D90425191DC5
:10172000072901D2002300E0DB1E012606FA05F19D
:10173000491E214099409E40761E16403143F0BC20
:1017400002F01FBF0CED00E0064900F00702086838
:101750004FF6FF03184040EA0220034A1043086096
:10176000704700000CED00E00000FA052DE9F84399
:1017700005460078354CC00754D0E0690026C0000B
:1017800008D4E06940F08050E061E069012600F093
:10179000805000902E480168C90512D40168804627
:1017A00041F480710160FFF743FF074605E000BF89
:1017B000FFF73EFFC01B642823D8D8F80000C005FF
:1017C000F6D5206A10F4407021D0A98801F4407148
:1017D00081421CD0206A1F49012220F440700A6017
:1017E00000220A602062C00711D0FFF721FF0746E0
:1017F00041F2883808E000BFFFF71AFFC11B4145DE
:1018000002D90320BDE8F883206A8007F4D5206A56
:10181000696820F44070084320621EB1E06920F03E
:101820008050E0612878800705D56068A96820F4B9
:101830004040084360602878C00605D56068E968C4
:1018400020F48000084360600020DBE700100240C5
:1018500000700040400442422DE9F0470F46050069
:1018600061D0434E306800F00700B84209D23068BA
:1018700020F0070038433060306800F00700B842BD
:1018800051D128683B4C810712D5400703D56068C9
:1018900040F4E06060602878000703D5606840F499
:1018A000605060606068A96820F0F00008436060E4
:1018B0002878C00728D06868012810D0216802283D
:1018C00010D0890700292EDA616821F00301014355
:1018D0006160FFF7ADFE804641F288390DE0216876
:1018E0008903EFE78901EDE7FFF7A2FEA0EB08010E
:1018F000494502D90320BDE8F0876068696800F0B7
:101900000C00B0EB810FEFD1306800F00700B84257
:101910000BD9306820F0070038433060306800F0A1
:101920000700B84201D00120E5E72878400705D537
:101930006068E96820F4E060084360602878000788
:1019400006D56068296920F4605040EAC1006060F3
:1019500000F038F86168084AC1F30311515CC840CF
:101960000649086006480068FFF782FE0020C2E7CB
:101970000020024000100240DA5F00080C00002046
:10198000040000200448054900684968044AC1F37E
:101990000221515CC84070470C000020001002403A
:1019A000EA5F00080448054900684968044AC1F331
:1019B000C221515CC84070470C000020001002405A
:1019C000EA5F00080E4A51680E4801F00C03042B30
:1019D00011D0082B0FD10C48C1F38343C903C05C5D
:1019E0000AD55168084AC1F34041921E515C054A2C
:1019F0005043B0FBF1F07047044948437047000082
:101A00000010024000127A00CA5F000800093D0081
:101A10002DE9F84F040070D02078C04DC00749D0A0
:101A20006868C0F38100012807D06868C0F38100AE
:101A3000022809D16868C00306D52868800339D513
:101A400060680028E7D035E06068B0F5803F0BD0D3
:101A500010B1B0F5A02F11D0286820F48030286094
:101A6000286820F4802002E0286840F48030286054
:101A7000606890B1FFF7DCFD06460AE0286840F494
:101A800080202860F0E700BFFFF7D2FD801B6428AC
:101A900073D828688003F7D50CE0FFF7C9FD064628
:101AA00005E000BFFFF7C4FD801B6428F0D828685C
:101AB0008003F7D420789A4E80074FF001094FF049
:101AC000000839D5686810F00C0F07D06868C0F3BB
:101AD0008100022809D16868C00306D428688007FD
:101AE00014D52069012808D110E02069B0B1C6F8EA
:101AF0000090FFF79DFD074605E00AE1FFF798FD1E
:101B0000C01B0228C4D828688007F7D528686169F7
:101B100020F0F80040EAC10028600DE0C6F800801F
:101B2000FFF786FD074604E0FFF782FDC01B022891
:101B300023D828688007F7D4207800072CD5794867
:101B4000A169D9B1C0F80090FFF772FD074604E023
:101B5000FFF76EFDC01B02280FD8686A8007F7D513
:101B600071484FF4FA510068B0FBF1F0009000BFEB
:101B70000098411E0091FAD20EE080E0C0F800808B
:101B8000FFF756FD074604E0FFF752FDC01B022891
:101B900075D8686A8007F7D42078400760D5E8696F
:101BA0000027C00008D4E86940F08050E861E86987
:101BB000012700F0805000905C480168C90513D4EB
:101BC0000168834641F480710160FFF731FD824670
:101BD00006E000BFFFF72CFDA0EB0A0064284ED8FA
:101BE000DBF80000C005F5D5E06801280AD008B18F
:101BF000052813D0286A20F001002862286A20F006
:101C0000040002E0286A40F001002862E06841F226
:101C1000883B98B1FFF70CFD82460BE0286A40F044
:101C200004002862EEE700BFFFF702FDA0EB0A0107
:101C300059455AD8286A8007F6D50CE0FFF7F8FC1A
:101C4000824605E0FFF7F4FCA0EB0A0159454CD8A9
:101C5000286A8007F6D41FB1E86920F08050E86157
:101C6000E06988B36968C1F38101022944D0022880
:101C7000C6F8608004D0FFF7DBFC044638E034E0AF
:101C8000FFF7D6FC074604E0FFF7D2FCC01B022892
:101C90002BD828688001F7D4206AB0F5803F05D1A1
:101CA0006868A16820F4003008436860D4E908013E
:101CB0000843696821F4741108436860C6F86090AD
:101CC000FFF7B6FC044606E025E000BFFFF7B0FCD6
:101CD000001B022809D828688001F7D51BE000BF47
:101CE000FFF7A6FC001B022802D90320BDE8F88FED
:101CF00028688001F4D40EE00128F7D06868226AD1
:101D000000F48031914204D1616A00F4701088427D
:101D100001D00120EAE70020E8E7000000100240BF
:101D200000004242800442420C000020007000404B
:101D300070B5040009D0606A002540B12561656175
:101D4000A56294F8510040B10CE0012070BD6068BC
:101D5000B0F5827FF4D0E561F2E784F85050204678
:101D600000F040F8022084F851002068016821F05A
:101D700040010160A088218900F4827001F40441CF
:101D80000843A18901F400610843217C01F00201AC
:101D90000843217D01F001010843218B01F400710A
:101DA0000843217F01F03801084394F8201001F026
:101DB00080010843218D01F4005108432168086027
:101DC000A069042101EA1040216848602068C169C7
:101DD00021F40061C1616565012084F85100002093
:101DE00070BD000030B585B00024009401940294C9
:101DF000039400681549884225D11548C16941F40A
:101E00008041C161C16901F480410491816941F05F
:101E10000801816180690F4D00F0080004904FF4C3
:101E2000204000900220019003200390694628463C
:101E3000FFF704FB4FF48040CDE9000469462846D3
:101E40000294FFF7FBFA05B030BD000000380040F7
:101E500000100240000C01402DE9FF4F81B01D46EB
:101E6000934604464FF001090E9EFFF7E1FB07463B
:101E700094F851006168012806D0B1F5827F3CD109
:101E8000A168C9BB042838D10298002871D0BBF1E1
:101E9000000FFBD0002DF9D094F8500001282CD071
:101EA0004FF0010A84F850A094F85100042802D0A1
:101EB000052084F851004FF00008C4F85480C4F89D
:101EC00038B0E587A58702992163E586A586C4F821
:101ED0004080C4F8448020680168490603D4016842
:101EE00041F040010160E068B0F5006F606808D023
:101EF000F0B3012D49D081E0FFE7022005B0BDE835
:101F0000F08F08B1012D39D1206B21680088C8609D
:101F1000206B801C2063E08E401EE0862EE020684F
:101F2000816889070FD5E18E69B1B9F1010F0AD136
:101F3000216B0988C160206B801C2063E08E401EED
:101F4000E0864FF0000920688168C9070CD0E18F56
:101F500051B1C068A16B0880A06B801CA063E08FAA
:101F6000401EE0874FF00109FFF762FBC01B01E054
:101F70000BE067E0B04201D3701C50D1E08E002826
:101F8000CDD1E08F0028CAD13EE0206B21680078D7
:101F90000873206B401C2063E08E401EE0862DE01D
:101FA0002068816889070FD5E18E69B1B9F1010F09
:101FB0000AD1216B09780173206B401C2063E08EED
:101FC000401EE0864FF0000920688168C9070CD0E8
:101FD000E18F51B1C068A16B0870A06B401CA06379
:101FE000E08F401EE0874FF00109FFF721FBC01B87
:101FF000B04202D3701C01D011E086B1E08E0028FF
:10200000CED1E08F0028CBD13A463146204601F0B0
:10201000BFFF50B12020606584F8508012E084F842
:1020200051A084F85080032068E7A06818B92068A0
:10203000C1688068009084F851A084F85080606D79
:102040000028F1D0012059E710B5401EB0F1807F83
:1020500001D3012010BD4FF0E02460610F21601713
:1020600002F08FFA0020A06107202061002010BD3F
:102070007047704710B590F83C20012A22D0012209
:1020800080F83C20CA688C6822F4407222434C6875
:1020900022F4806222430C6822F4006222430C691D
:1020A00022F4805222434C6922F400522243C9692F
:1020B000002322F480420A4301684A6480F83C30DD
:1020C000002010BD022010BD70B590F83C20012A00
:1020D00026D0012480F83C40022280F83D2003688D
:1020E0005A689D6822F070060A6832435A600D4BA8
:1020F00002689A4208D0B2F1804F05D00A4B9A424A
:1021000002D00A4B9A4204D1496825F08003194352
:10211000916080F83D40002180F83C10084670BD79
:10212000022070BD002C0140000400400008004067
:1021300010B5040003D094F83D0010B107E0012071
:1021400010BD002084F83C00204600F01FF802205B
:1021500084F83D00211D206801F0FEFF012084F875
:10216000460084F83E0084F83F0084F8400084F87C
:10217000410084F8420084F8430084F8440084F865
:10218000450084F83D00002010BD000008B5204A3D
:102190000168204891420ED1816941F4006181615A
:1021A0008069002200F40060009011461920FFF7BA
:1021B000ABFA19201BE0B1F1804F0AD0164A9142C8
:1021C00019D1C16941F00201C161C06900F002008A
:1021D0001BE0C16941F00101C161C069002200F04A
:1021E0000100009011461C20FFF78EFA1C20BDE86C
:1021F0000840FFF77BBA094A914207D1C16941F013
:102200000401C161C06900F00400009008BD000035
:10221000002C014000100240000400400008004073
:1022200090F83D10012901D001207047022180F86B
:102230003D1000680B49884208D0B0F1804F05D0AE
:102240000949884202D00949884204D1816801F0D5
:102250000701062903D0016841F001010160002057
:1022600070470000002C01400004004000080040BE
:1022700090F83D10012901D001207047022180F81B
:102280003D100168CA6842F00102CA6000680B494B
:10229000884208D0B0F1804F05D00949884202D069
:1022A0000849884204D1816801F00701062903D05A
:1022B000016841F00101016000207047002C0140DD
:1022C000000400400008004070B5044690F83C004F
:1022D0000025012817D0012684F83C60022084F8EC
:1022E0003D002068826822F0770222F47F428260FB
:1022F0000868502838D00DDC20284FD005DC90B37A
:10230000102811D14AE0022070BD302846D0402864
:102310000AD13BE060282FD070280DD0B0F5805F47
:1023200003D0B0F5005F12D0012584F83D60002095
:1023300084F83C00284670BDCB68D1E901212068B3
:1023400001F053FF2068816841F0770109E0CB6814
:10235000D1E90121206801F048FF2068816841F43B
:1023600080418160E1E719E0CA684968206801F0AE
:10237000F1FF5021206806E0CA684968206801F032
:10238000FAFF6021206801F03AFFCEE7CA68496889
:10239000206801F0DFFF40212068F4E72268014651
:1023A0001046F0E770472DE9F04104460068C66822
:1023B00005694FF00007A90713D5B10711D5F91E1C
:1023C000016101202077206880698007204602D0C3
:1023D000FFF7E8FF04E000F0C9F8204600F05BF9E1
:1023E0002777680716D5700714D521686FF00400A9
:1023F0000861022020772068806910F4407F204621
:1024000002D0FFF7CFFF04E000F0B0F8204600F064
:1024100042F92777280715D5300713D521686FF0C3
:1024200008000861042020772068C06980072046E2
:1024300002D0FFF7B7FF04E000F098F8204600F064
:102440002AF92777E80616D5F00614D521686FF02B
:1024500010000861082020772068C06910F4407FD0
:10246000204602D0FFF79EFF04E000F07FF82046F0
:1024700000F011F92777E80708D0F00706D02168A7
:102480006FF001000861204600F054F9280608D5D5
:10249000300606D521686FF0800008612046FFF7FE
:1024A000E7FD680608D5700606D521686FF0400084
:1024B0000861204600F04AF9A8060AD5B00608D5FA
:1024C00021686FF0200008612046BDE8F041FFF769
:1024D000D0BDBDE8F081000000B585B000210091BD
:1024E0000191029103911B4B02681B4802219A4201
:1024F00012D1826942F0040282618069039100F086
:10250000040004904FF47060CDE90001694613485F
:10251000FEF794FF05B000BD114B9A42FAD18269D3
:1025200042F0080282618069039100F00800049083
:102530003020CDE9000169460A48FEF77FFF0A48CE
:10254000416821F4406141F0E06141F40061416083
:10255000E0E70000002C01400010024000080140AC
:1025600000040040000C014000000140704770B5BD
:10257000044690F83C0000260D4601280FD00120AB
:1025800084F83C006AB1042A1DD0082A2FD00C2AF6
:102590003FD00126002084F83C00304670BD022068
:1025A00070BD206801F034FE2068816941F00801A7
:1025B00081612068816921F004018161206881695D
:1025C0002A69114311E0206801F04AFE2068816900
:1025D00041F4006181612068816921F48061816139
:1025E000206881692A6941EA02218161D2E7206875
:1025F00001F062FE2068C16941F00801C1612068F4
:10260000C16921F00401C1612068C1692A691143CF
:1026100011E0206801F07CFE2068C16941F400618E
:10262000C1612068C16921F48061C1612068C1690C
:102630002A6941EA0221C161ACE710B5040003D068
:1026400094F83D0010B107E0012010BD002084F88F
:102650003C00204600F01EF8022084F83D00211DB9
:10266000206801F079FD012084F8460084F83E00DE
:1026700084F83F0084F8400084F8410084F8420068
:1026800084F8430084F8440084F8450084F83D0051
:10269000002010BD7047704710B50446022249B1B2
:1026A00004290ED0082913D094F84100012816D02F
:1026B000012010BD94F83E000128F9D184F83E2095
:1026C0000FE094F83F000128F2D184F83F2008E0A1
:1026D00094F840000128EBD184F8402001E084F810
:1026E00041200122206801F073FD0F4920688842D3
:1026F00003D1426C42F4004242642068884208D010
:10270000B0F1804F05D00949884202D0084988427B
:1027100004D1816801F00701062903D0016841F066
:1027200001010160002010BD002C014000040040A8
:102730000008004010B50068B0F1804F05D101F0ED
:102740006BFEBDE8104001F029BE10BD704770B5AA
:10275000040004D094F84100002510B106E00120E7
:1027600070BD84F84050204600F024F8242084F8FE
:1027700041002068C16821F40051C160204601F089
:102780007DFE2068016921F4904101612068416962
:1027900021F02A0141612068C16841F40051C16003
:1027A0006564202084F8410084F8420065630020BD
:1027B00070BD000030B585B00024009401940294EF
:1027C000039400681449884223D11448C16941F434
:1027D0000031C161C16901F400310491816941F0A6
:1027E0000401816180690E4D00F004000490042012
:1027F0000090022001900320039069462846FEF7CE
:102800001DFE0820CDE90004694628460294FEF723
:1028100015FE05B030BD000000440040001002402D
:1028200000080140FEE7000010B50E4C0022802198
:102830002046FEF7F8FE00F017F80122402120465E
:10284000FEF7F1FE00F010F8002240212046FEF7CE
:10285000EAFE00F009F820460122BDE81040802180
:10286000FEF7E1BE000C01400020401CC0B20A2867
:10287000FBD370470C4800B5816985B041F0080171
:1028800081618069694600F008000490C0200090D2
:1028900003200390112001900448FEF7CFFD00F0C3
:1028A0009DF805B000BD000000100240000C014082
:1028B00010B50C4C012280212046FEF7B4FEFFF734
:1028C000D3FF012240212046FEF7ADFEFFF7CCFFEB
:1028D000002240212046FEF7A6FEBDE81040FFF78B
:1028E000C3BF0000000C01402DE9F0410024134E4D
:1028F000074625466006040E012240213046FEF7B9
:1029000092FEFFF7B1FF80213046FEF787FE08B147
:10291000641CE4B2002240213046FEF784FEFFF73B
:10292000A3FF6D1CEDB2082DE4D327B1FFF77CFFA8
:102930002046BDE8F081FFF7BBFFF9E7000C01403E
:1029400070B5154E05460024280601D5012200E089
:10295000002280213046FEF766FEFFF785FF012248
:1029600040213046FEF75FFEFFF77EFF0022402148
:102970003046FEF758FE072C04D101228021304654
:10298000FEF751FE6806050EFFF76EFF641CE4B209
:10299000082CD9D370BD0000000C014010B50E4CBE
:1029A000012280212046FEF73EFE012240212046E2
:1029B000FEF739FEFFF758FF002280212046FEF780
:1029C00032FEFFF751FF002240212046FEF72BFE8A
:1029D000BDE81040FFF748BF000C014010B50A4C9D
:1029E000002280212046FEF71EFE012240212046C3
:1029F000FEF719FEFFF738FF20460122BDE8104020
:102A00008021FEF710BE0000000C014070B5104D93
:102A1000012280212846FEF706FEFFF725FF01224E
:102A200040212846FEF7FFFDFFF71EFF80212846C4
:102A3000FEF7F4FD08B1012400E00024002240214B
:102A40002846FEF7F0FDFFF70FFF204670BD00009F
:102A5000000C01402DE9F14FB8499AB00868B84A16
:102A600080B24FF000091080C1F80090FDF79CFC87
:102A7000B44C2146FDF745FC2146FDF742FC1A9077
:102A8000684600F095FE1C226946AF48FDF78BFBB7
:102A90001C22AD490DA8FDF786FB0F98B0F5000F7D
:102AA00001DB014601E080F00041A848814201DAE3
:102AB000CDF83C900E99B1F5000F01DA81F000419C
:102AC000814201DACDF83890A14C0D982146FDF7EE
:102AD000E6FB069021460E98FDF7E1FB8346214672
:102AE0000F98FDF7DCFB82469748C16803910169A6
:102AF0000291406901900146FDF7D1FB029905461C
:102B00000846FDF7CCFB039904460846FDF7C7FBD2
:102B10002146FDF76CFB2946FDF769FB03F03EFA01
:102B20008C49044688420FDD01460398FDF7E9FB16
:102B3000039021460298FDF7E4FB0290214601989C
:102B4000FDF7DFFB019000E000247D481830D0E95C
:102B50000165D0F80080C76829464046FDF79FFB15
:102B60000C9039463046FDF79AFB0C99FDF791FB26
:102B70000121FDF704FC0C9039462846FDF78FFB38
:102B8000149031464046FDF78AFB1499FDF72FFB60
:102B90000121FDF7F4FB39460B900846FDF77FFB5A
:102BA000074629460846FDF77AFB054631460846A2
:102BB000FDF775FB064641460846FDF770FB3146BA
:102BC000FDF767FB2946FDF764FB3946FDF70FFB70
:102BD0004FF400070546BC4274DB0B990198FDF7E2
:102BE0005EFB044629460298FDF759FB2146FDF796
:102BF00050FB089029460398FDF751FB04460C99B9
:102C00000198FDF74CFB2146FDF743FB80460C99EC
:102C10000298FDF744FB04460B990398FDF73FFB30
:102C20002146FDF736FB464C0546A668BE4221DB31
:102C300030460899FDF733FB1A99FDF730FBE16840
:102C4000FDF7D5FAE06041463046FDF728FB1A99BA
:102C5000FDF725FB2169FDF7CAFA206129463046B8
:102C6000FDF71DFB1A99FDF71AFB6169FDF7BFFA25
:102C7000606105E0C4F81490C4F81090C4F80C909A
:102C8000606808990646FDF70AFBE168FDF7AFFAB0
:102C90000699FDF7ACFA069041463046FDF7FFFA7B
:102CA0002169FDF7A4FA5946FDF7A1FA83462946A2
:102CB0003046FDF7F4FA6169FDF799FA5146FDF7E0
:102CC00096FA824618AB17AA16A915A88DE80F0028
:102CD0001B4853465A461830069903F007F81599D1
:102CE0001A98FDF7DCFA164C18342168FDF77FFAC4
:102CF000206016991A98FDF7D2FA6168FDF777FA05
:102D0000606017991A98FDF7CAFAA168FDF76FFA83
:102D1000A06018991A98FDF7C2FAE168FDF767FA02
:102D2000E060204603F053F8074B20461B1F1A1F94
:102D3000111F03F093F81BB0BDE8F08F240800408A
:102D40009000002000007A44D40400209A99993E13
:102D500033FA8E3CBD378635044B10B55C68046091
:102D6000986808601868106010BD0000C804002052
:102D7000044B10B51C6804605868086098681060BF
:102D800010BD0000D40400201FB53648BDF8002057
:102D900090F8501000EB01110A80BDF8021090F875
:102DA000502000EB0212518090F85010019A00EB75
:102DB0000111029BC1E90123039990F8502000EB17
:102DC0000212D16090F850200AB100211DE09DF858
:102DD000001080F8511023E043189DF8084093F844
:102DE000513000EB03131B7AA34205D20CE0831889
:102DF000521E13F8514F5C708A42F8DA43189DF85E
:102E0000002083F8512002E0491C8A42E4DC90F85B
:102E100050208A4204D113499DF800305131535457
:102E200090F85010BDF8002000EB01110A80BDF8A9
:102E3000021090F8502000EB0212518090F85010D0
:102E4000019A00EB0111029BC1E90123039990F85B
:102E5000502000EB0212D16010F8501F491C017085
:102E60001FBD00008805002010B5FFF703FD80217D
:102E70006B2000F0EBF8C8B96420FEF7CDFA002112
:102E80006B2000F0E3F8D8B90A20FEF7C5FA03205A
:102E900000F0D7F850B9002000F0CEF880B94FF418
:102EA0007A7402211A2000F0D1F808B1012010BD77
:102EB000B4FBF4F0401EC1B2192000F0C7F808B10D
:102EC000022010BD0021382000F0C0F80028EDD10C
:102ED00000216A2000F0BAF80028F1D10021232057
:102EE00000F0B4F808B1032010BD8021372000F0B5
:102EF000ADF808B1042010BD752000F049F868282D
:102F000001D0052010BD01216B2000F09FF808B111
:102F1000062010BD00216C2000F098F80028F8D0A1
:102F2000072010BD2DE9FF471D46DDE90DA416461B
:102F30000F4680466B460E223B216820DDF830901C
:102F400000F044F8002820D1BDF8000040BAA8F8ED
:102F50000000BDF8020040BA3880BDF8040040BA55
:102F600030801CB1BDF8060040BA2080BDF80800D2
:102F700040BA2880BDF80A0040BAA9F80000BDF8A0
:102F80000C0040BAAAF80000002004B0BDE8F087A9
:102F900010B50446FFF702FDD020FFF7D1FCFFF784
:102FA00035FD2046FFF7CCFCFFF730FDFFF7F6FCC0
:102FB000D120FFF7C5FCFFF729FD0020FFF794FCA7
:102FC0000446FFF70BFD204610BD00002DE9F0413F
:102FD0001D4614460F460646FFF7E0FC7006000E3D
:102FE000FFF7AEFCFFF712FD20B1FFF7F7FC012061
:102FF000BDE8F0813846FFF7A3FCFFF707FDFFF7B8
:10300000CDFC012000EB4600C0B2FFF799FCFFF7B2
:10301000FDFC09E0012C0DD05FF00100FFF764FC1E
:10302000641E05F8010BE4B2002CF3D1FFF7D6FCC7
:103030000020DDE70020F1E7C006010E1C2000F0B3
:1030400005B8C006010E1B20AFF3008070B50C461A
:103050000546FFF7A3FCD020FFF772FCFFF7D6FC74
:1030600050B92846FFF76CFCFFF7D0FC2046FFF76D
:1030700067FCFFF7CBFC18B1FFF7B0FC012070BD77
:10308000FFF7ACFC002070BD3EB500211148009157
:1030900001910F4A02910260816001730175012460
:1030A0004FF460220461C2614160FEF79BF808B1F1
:1030B000FDF7E2FF07200094CDE90140694605488D
:1030C000FEF70EF8002801D0FDF7D6FF3EBD000048
:1030D00000240140E80000202DE9F04786B00024DC
:1030E00034480094019402940394816941F02001D2
:1030F0008161816901F020010491816941F004013D
:103100008161816901F004010491816941F0080144
:1031100081618069DFF8A09000F00800049000222F
:1031200010214846FEF77FFADFF890A040F60277BC
:10313000002239465046FEF776FA4FF40048012245
:1031400041464846FEF76FFA012208215046FEF735
:103150006AFA102001250226CDE90005CDE90246D4
:1031600069464846FEF76AF900970396CDE901548F
:1031700069465046FEF762F928038DE8310069463A
:103180005046FEF75BF90326CDF800800396CDE9A3
:10319000015469464846FEF751F90820CDE900057B
:1031A000CDE9024669465046FEF748F906B0BDE84B
:1031B000F08700000010024000080140000C0140B0
:1031C000104810B50E4901604FF482714160002132
:1031D0008160C1604FF400720161C0E905121022E4
:1031E000C0E90721416281620A21C162FEF7A0FDA8
:1031F000002803D0BDE81040FDF73EBF10BD000021
:10320000003800401801002010B596B000240F943B
:1032100010941194129413941C2168461494FCF792
:10322000DBFF202107A8FCF7D7FF35483349C0E969
:1032300000144FF4E151C0E9024180210461C0E96A
:103240000541FEF775FF08B1FDF716FF4FF48050FA
:103250000F900FA92A48FFF737F808B1FDF70CFFC8
:103260002748FFF7EAF908B1FDF706FF139413A901
:1032700023481494FEF728FF08B1FDF7FDFE6020F7
:103280000090C820CDE90104039404940594002221
:1032900069461B480694FFF76AF908B1FDF7ECFE92
:1032A000042269461648FFF762F908B1FDF7E4FE0B
:1032B000082269461248FFF75AF908B1FDF7DCFE0B
:1032C0000C2269460E48FFF752F908B1FDF7D4FE0B
:1032D0000794089409944FF400500A94CDE90B40E8
:1032E00007A907480E94FEF7C5FE08B1FDF7C4FE16
:1032F0000348FFF7F1F816B010BD0000002C0140A4
:103300007001002010B586B0002417480094019485
:103310000294039404944FF0804105940160472186
:10332000C0E901144FF47A71C0E90314802181616E
:10333000FEF7FEFE08B1FDF79FFE4FF480500090AF
:1033400069460948FEF7C0FF08B1FDF795FE0494F1
:1033500004A905480594FEF7B7FE002801D0FDF743
:103360008BFE06B010BD0000B801002010B58EB075
:1033700000240794089409940A940B941C2168462D
:103380000C94FCF729FF2348214901600121C0E981
:1033900001144FF47A71C0E903148461FEF7C8FE8A
:1033A00008B1FDF769FE4FF48050079007A919484E
:1033B000FEF78AFF08B1FDF75FFE1648FFF73DF9FB
:1033C00008B1FDF759FE0B940BA912480C94FEF7B7
:1033D0007BFE08B1FDF750FE602000904FF4FA70BC
:1033E000CDE90104002269460A480494FFF7BFF8BA
:1033F00008B1FDF741FE042269460648FFF7B7F819
:1034000008B1FDF739FE0348FFF766F80EB010BDAE
:10341000000400400002002010B586B000241748C8
:103420000094019402940394049413490594016058
:103430004721C0E901144FF6FF71C0E9031484610C
:10344000FEF776FE08B1FDF717FE4FF480500090AE
:1034500069460A48FEF738FF08B1FDF70DFE0494EF
:1034600004A906480594FEF72FFE002801D0FDF7B9
:1034700003FE06B010BD0000000800404802002016
:103480000C4810B50A4901604FF4E1314160002158
:1034900081600C22C160C0E904128161C161FFF743
:1034A00056F9002803D0BDE81040FDF7E5BD10BD7A
:1034B00000440040900200200A460146A82000F087
:1034C0001BBB70B506460025072000F0F7FA04463E
:1034D00040060FD5602000F0F1FA0246212805D2FF
:1034E0003146612000F0C0FA012503E0FF21E2200F
:1034F00000F02EFBE00605D5E00703D0FF21E12018
:1035000000F026FB2146272000F022FB284670BD54
:103510001FB500F097FF01231A4664216846FDF7A6
:103520003BFB314CBDF800002080BDF802006080FC
:10353000DDE901016060A1600398E06001230322DE
:10354000C8216846FDF728FBBDF800002082BDF8C1
:10355000021004F110004180DDE901126161A261F5
:103560000399C160012302224FF4FA716846FDF706
:1035700013FBBDF800002084BDF8021004F1200008
:103580004180DDE901126162A2620399C1600123F9
:10359000052219466846FDF7FFFABDF800002086AF
:1035A000BDF8021004F130004180DDE901126163D1
:1035B000A2630399C1600123062232216846FDF708
:1035C000EBFABDF80000A4F84000BDF8021004F1C9
:1035D00040004180DDE901126164A2640399C16089
:1035E000BDE81F4000F0A4BDE0050020FEE700009C
:1035F0002DE9F041214C804688B060681D46401C92
:1036000016460F46606000F08BF81D4A111F081F18
:10361000FFF7AEFB60680321B0FBF1F201FB120083
:1036200070B92846FCF7C0FE04F110020346111FD2
:10363000081F8DE80700324639464046FDF7E2FA9A
:1036400007AB06AA05A904A88DE80F0008342B468D
:1036500094E80700FDF714FCBDF81C0083B2BDF828
:10366000180082B2BDF8140081B2BDF8100080B21B
:1036700000F008F808B0BDE8F0810000600000200C
:103680007405002030B5054C256868632068C16367
:10369000206882632068036430BD00007001002050
:1036A00030B58FB005461C2101A8FCF795FD00241C
:1036B00016E008A800F07CF80B990498FCF797FD39
:1036C00004900C990598FCF792FD05900D990698C9
:1036D000FCF78DFD06900220FDF79EFE641CA4B24F
:1036E000AC42E6D32846FCF75FFE04462146049828
:1036F000FCF707FE084D2146E8600598FCF701FE3F
:10370000286121460698FCF7FCFD0449FCF7C1FD41
:1037100068610FB030BD0000D80200200AE81C41EB
:1037200000B587B0684600F043F81C22694602489D
:10373000FCF739FD07B000BDD404002030B58FB0D0
:1037400005461C216846FCF747FD002416E007A843
:1037500000F02EF807990098FCF749FD00900899B1
:103760000198FCF744FD019009990298FCF73FFD90
:1037700002900220FDF750FE641CA4B2AC42E6D3D6
:103780002846FCF711FE044621460098FCF7B9FDD7
:10379000064D214628600198FCF7B3FD686021467C
:1037A0000298FCF7AEFDA8600FB030BDD802002033
:1037B0002DE9F04192B080461C2103A8FCF70CFDD6
:1037C00010AA0FA90EA88DE807000DAB0CAA0BA933
:1037D0000AA8FFF7A7FBBDF93400FCF7DCFD4E4C4F
:1037E0002146FCF78EFD0546BDF93800FCF7D3FDF8
:1037F0002146FCF786FD0646BDF93C00FCF7CBFDF3
:103800002146FCF77EFDCDE904600395BDF9280053
:10381000FCF7C1FD6FF00D042146FCF7B0FD064634
:10382000BDF92C00FCF7B7FD2146FCF7A8FD0546C5
:10383000BDF93000FCF7AFFD2146FCF7A0FD374F86
:10384000044639463046FCF72AFD0690394628469C
:10385000FCF725FD079039462046FCF720FD304D4A
:103860000890287800284FD02E4C03982168FCF748
:1038700010FD039061680498FCF70BFD0490A168AB
:103880000598FCF706FD0590E1680698FCF701FD38
:10389000069021690798FCF7FCFC0790616908987D
:1038A000FCF7F7FC01460890FCF7F9FC079906467F
:1038B0000846FCF7F4FC069904460846FCF7EFFCC2
:1038C0002146FCF794FC3146FCF791FC16498842EE
:1038D0001ADD1649FCF715FD02F060FB01464FF0BA
:1038E0007E50FCF70EFD0446686021460698FCF702
:1038F000D6FC069021460798FCF7D1FC079021469C
:103900000898FCF7CCFC08901C2203A94046FCF761
:103910004AFC12B0BDE8F0816F1283410AE81C41F5
:1039200010000020D8020020BD3786353D57C04228
:103930002DE91040FFF798FA010003D00AA000F02B
:10394000FDFDF7E74FF4FA70FDF766FDC820FFF7BD
:10395000F5FEC820FFF7A4FE074901200870BDE866
:10396000104006A000F0EABD4D50555F4552522070
:1039700025640D0A00000000100000204D50552065
:10398000B3F5CABCBBAFB3C9B9A62028316B487A1E
:103990002F3938487A20444C50462C20534920B5C2
:1039A000A5CEBB29A3A10D0A00000000FEE7000080
:1039B0001CB50FA10522D1E90001CDE9000169463E
:1039C000302000F099F805226946102000F04CF8EC
:1039D000002069460A5CA52A03D1401CC0B2052814
:1039E000F8D3052801D001201CBD00201CBD00001B
:1039F000A5A5A5A5A50000002DE9F0410E460746A6
:103A000000244FF47A7500BFFFF7D2FF50B1214672
:103A10000BA000F093FD2846641CFDF7FDFC052C6F
:103A2000F2DD01E0052C05DD0AA000F087FD002095
:103A3000BDE8F0813146384600F0ACF80120F7E7E8
:103A40006E726632344C3031C1ACBDD3D6D0A3BA1D
:103A5000256400006E726632344C3031B3F5CABC56
:103A6000BBAFCAA7B0DC00002DE9F047DFF84490F7
:103A700015460F4604464FF400480022414648468A
:103A8000FDF7D1FD21460C4800F0F8FA0646002467
:103A900006E0FF21084800F0F1FA3855641CE4B252
:103AA000AC42F6D3012241464846FDF7BCFD304604
:103AB000BDE8F087000801401801002070B50C4EE9
:103AC00004464FF40045002229463046FDF7ABFD81
:103AD0002146084800F0D2FAFF21064800F0CEFA4D
:103AE0000446012229463046FDF79DFD204670BD63
:103AF00000080140180100202DE9F047DFF8489048
:103B000016460D4604464FF40048002241464846FA
:103B1000FDF789FD21460D4800F0B0FA0746002464
:103B200007E000BF15F8011B084800F0A7FA641C65
:103B3000E4B2B442F6D3012241464846FDF773FD94
:103B40003846BDE8F0870000000801401801002059
:103B50002DE9F0410D4E0F4604464FF4004500227A
:103B600029463046FDF75FFD2146094800F086FAF8
:103B700004463946064800F081FA012229463046BB
:103B8000FDF751FD2046BDE8F0810000000801402E
:103B900018010020FEB5054600203B4F0C468DF86D
:103BA0000400024608213846FDF73DFD052237494D
:103BB0002A20FFF7A1FF35490522491F3020FFF7D2
:103BC0009BFF01212120FFF7C3FF01212220FFF7E6
:103BD000BFFF1A212420FFF7BBFF21462520FFF756
:103BE000B7FF0F212620FFF7B3FF012D34D0022DA0
:103BF00038D02846FF2450267325032839D00E21BB
:103C00002020FFF7A5FFFF21E120FFF7A1FFFF2103
:103C10005FF0E200FFF79CFF8DF80460012302AA29
:103C200001A91B480094FEF717F98DF804500123F1
:103C300002AA01A916480094FEF70EF901213C20C2
:103C4000FFF786FF06213D20FFF782FF01220821B2
:103C50003846FDF7E8FCFEBD20213120FFF778FF54
:103C60000F2104E020213120FFF772FF0E212020D8
:103C7000EAE7FF21E120FFF76BFFFF21E220FFF7DA
:103C800067FF0F212020C5E7000C01401D00002028
:103C90001801002000B589B0014620226846FCF7D3
:103CA00082FA0B489DF80010827891420ED19DF85F
:103CB0001910C078814209D1064903201C220870DE
:103CC00069460548FCF76FFAFDF79CF809B000BD9E
:103CD00058000020B80000204405002070B5294895
:103CE000294C88B0017821704078A0742748284D6D
:103CF000284E0078A07331466868FCF7D0FAFCF7CC
:103D000058FBA0803146A868FCF7C9FAFCF751FBC4
:103D1000E08031462868FCF7C2FAFCF74AFB1E4DEA
:103D2000608031462868FCF7BAFAFCF742FB208134
:103D300031466868FCF7B3FAFCF73BFB608131461B
:103D4000A868FCF7ACFAFCF734FBA08101F026FC74
:103D50001249FCF7A4FAFCF72CFB20821148104909
:103D60000068FCF79CFAFCF73DFBE0731422214647
:103D70006846FCF718FA202269460B48FCF713FA4C
:103D800008B070BD5800002030050020B8000020A9
:103D9000600500200000A0426C0500200000C84221
:103DA00000004842C400002010050020FCF79ABF24
:103DB00070B50DF1100C9CE8700006F1240C86E83B
:103DC000070000208CE839003062B061F06170615A
:103DD0003061F06070BD00002DE9F04104463348C9
:103DE0000168491C0160642901D100210160D4E906
:103DF0000701FCF74EFAE060A26901461046FCF7A5
:103E0000F6F90146A061A06A10F0FF4F1AD080F0C9
:103E10000040FCF70FFB01D2A06902E0A06A80F02D
:103E20000040A16AFCF706FBA06A0AD280F00040BD
:103E3000A169FCF7FFFA01D2A06902E0A06A80F054
:103E40000040A061D4E903703946FCF722FAA1686A
:103E5000FCF725FA0546A1696068FCF720FA0646DA
:103E600039462068FCF71BFA3146FCF7C0F92946B1
:103E7000FCF7BDF96062E16AFCF7E6FA01D2606A1C
:103E800000E0E06A216BFCF7D5FA08D2E16A606ACB
:103E9000FCF7DAFA01D2606A02E0E06A00E0206B27
:103EA0006062E0682061BDE8F08100008C000020C5
:103EB00070B504460D46D4E90701FCF7EAF901465E
:103EC000E060A069FCF793F90146A061A06A10F0D8
:103ED000FF4F1AD080F00040FCF7ACFA01D2A06985
:103EE00002E0A06A80F00040A16AFCF7A3FAA06A91
:103EF0000AD280F00040A169FCF79CFA01D2A069C7
:103F000002E0A06A80F00040A0612946A068FCF7AA
:103F1000C6F90646A1696068FCF7C1F90546E16883
:103F20002068FCF7BCF92946FCF761F93146FCF73B
:103F30005EF96062E16AFCF787FA01D2606A00E02C
:103F4000E06A216BFCF776FA08D2E16A606AFCF756
:103F50007BFA01D2606A02E0E06A00E0206B6062F6
:103F600070BD7047FDF71CB810B5FDF787F8BDE8C8
:103F7000104001F047BAFDF73DB8000010B5FDF75D
:103F800093F80149086010BDC4000020FDF758B83F
:103F9000F8B515460E460B46009204460122022152
:103FA00000F010F840B933460022802120460095E9
:103FB00000F008F8002804D0606D40F02000606533
:103FC0000320F8BD2DE9F8431E4691468846044675
:103FD000089DFDF72DFB401B351AFDF729FB074611
:103FE00025480068C0F3CB30684338E0701C37D0F8
:103FF000FDF71EFBC01BA84203D215B1009860B3A9
:104000002CE02068416821F0E00141606068B0F573
:10401000827F0BD1A068B0F5004F02D0B0F5806F61
:1040200004D12068016821F040010160A06AB0F568
:10403000005F09D12068016821F400510160206807
:10404000016841F400510160012084F85100002012
:1040500084F850000320BDE8F8830025401E00903E
:104060002068816838EA010004D000214945BDD1AB
:104070000020F0E70121F9E70C0000203EB5FF2405
:104080008DF80810012301AA02A90094FDF7E4FEAF
:1040900008B18DF804409DF804003EBD7047002132
:1040A00004E000BF00BF00BF00BF491CB1EBC00F60
:1040B000F7D37047FDF7C2BA30B593B028216846F0
:1040C000FCF78AF814210AA8FCF786F800240121DD
:1040D0000F9410940804CDE90010119412940294E6
:1040E00002250491CDE907504FF4E010099068468D
:1040F000FDF78EFC08B172B6FEE70F20CDE90A0588
:104100004FF48060CDE90C4002210AA80E94FDF71F
:10411000A3FB08B172B6FEE70FA80F951194FDF747
:1041200025FB002801D072B6FEE713B030BD704702
:104130000249012081F856007047000088050020E0
:104140000148FEF730B90000700100200148FEF779
:104150002AB90000B8010020F0B50268194B1A4CCA
:104160001A4D4FF08047984205D0B84203D0A04284
:1041700001D0A84203D122F070064A683243984227
:1041800005D0B84203D0A04201D0A84203D122F406
:104190004074CA6822434C6922F0800222430260C4
:1041A0008A68C2620A688262984201D10969016321
:1041B000012141610169C90703D0016921F00101B1
:1041C0000161F0BD002C01400004004000080040E7
:1041D00010B501F01F030121046A99408C43046269
:1041E000016A9A401143016210BD10B5846842EA29
:1041F000032224F47F440A432243826010BD826874
:1042000022F070020A4342F007018160704700000B
:1042100030B5036A026A22F00102026242688469D0
:1042200024F073050C682C4323F002058B682B43A4
:104230000A4DA8420BD123F00805CB6822F4407246
:104240002B434D6923F0040315438A692A434260D6
:10425000846149684163036230BD0000002C014065
:1042600030B5026A036A23F010030362436884696D
:104270000D6824F4E64444EA05248D6822F0200207
:1042800042EA05120B4DA8420ED1CD6822F0800201
:1042900042EA05124D6923F4406343EA85038D69C0
:1042A00022F0400243EA85034360846149688163E8
:1042B000026230BD002C014030B5036A026A22F46C
:1042C000807202624268C46923F4007324F07305AB
:1042D0000C682C438D6843EA05230C4DA8420ED18F
:1042E000CD6823F4006343EA05234D6922F440526C
:1042F00042EA05128D6923F4806342EA05124260A6
:10430000C4614968C163036230BD0000002C0140F4
:1043100030B5046A026A22F4805202624268C369BC
:104320000D6823F4E64343EA05238D6824F4005422
:1043300044EA0534064DA84204D14D6922F4804276
:1043400042EA85124260C36149680164046230BD7B
:10435000002C014010B5036A046A24F001040462D1
:10436000846924F0F00444EA021423F00A020A43A8
:104370008461026210BD10B5036A046A24F010045F
:104380000462846923F0A00324F4704444EA0232F6
:1043900043EA01118261016210BD000070B51D4C3D
:1043A000FF2194F85600012833D100262DE0A019F2
:1043B00090F8510004EB0015AA79012A24D1AA88AB
:1043C0004FF47A73B3FBF2F26B889A421CD8FF2940
:1043D00002D02A7A8A421CD100216980052812D293
:1043E000DFE800F00306090C0F00FFF7BBFD0AE051
:1043F000FFF7BAFD07E0FFF7BEFD04E0FFF7BEFDE3
:1044000001E0FFF7C3FD297A761C94F85000B04212
:10441000CDDC70BD88050020094991F856000128BF
:104420000CD1002006E000BF01EB00135A88521C9B
:104430005A80401C91F850208242F5DC7047000001
:1044400088050020F0B500220B4B0524642583F875
:10445000502083F8562010465FF0010603EB001150
:104460004A801F1887F851400D724E72CA60401C76
:104470000528F3DBF0BD00008805002070B5044678
:1044800000680169E26821F440511143016121692A
:10449000A0680843616908432168CA6841F20C6357
:1044A0009A430243CA6020684169A26921F44071BD
:1044B000114341611E492068884202D1FDF772FA1A
:1044C00001E0FDF75FFA00EBC00101EB001260684C
:1044D00064218000B2FBF0F3B3FBF1F36FF0180638
:1044E0007343B2FBF0F5B2FBF0F605EB8305322324
:1044F00003EB0515B5FBF1F5B6FBF1F605F0F0059C
:1045000005EB0615B2FBF0F6B2FBF0F0B0FBF1F0F4
:104510006FF01802504306EB800003EB0010B0FB75
:10452000F1F0216800F00F002844886070BD0000A1
:1045300000380140FEE7FFF739BC00000FB4054B1F
:1045400010B503A9044A029800F01AF910BC5DF8EE
:1045500014FB000015560008E0000020410008028E
:1045600018BF04200A0E18BF40F001004FF07F4230
:1045700032EA010108BF40F00200012808BF05200F
:1045800070470907090E002804DB00F1E02080F8DD
:104590000014704700F00F0000F1E02080F8141DB7
:1045A000704700214FF07E50FBF7ABBE0121FBF7B7
:1045B000E6BEFBF71CBE00210846FBF7A2BE612148
:1045C0004FF0E040FBF7DBBE6FF05E010807FBF742
:1045D000D6BE02E008C8121F08C1002AFAD17047EF
:1045E0007047002001E001C1121F002AFBD1704773
:1045F0000149086070470000E40000202DE9FF5FDA
:1046000082B00021DDE90430020DDDF840B0034343
:1046100018D044F61050A2F2FF32424315141198FC
:1046200001281FD0A5EB0B00401C5FEA000A4FF0E9
:1046300000064E4FDFF83891B046504615D5CAF106
:10464000000413E0119801244AA3012801D16FEA64
:104650000B010298119AC0E90031C0E9024206B08C
:10466000BDE8F09FCBF10000DFE704460021404A9F
:10467000491842EB0450CDE9001012E0E00707D0E2
:1046800032463B4640464946FCF73CF88046894660
:1046900032463B4610461946FCF734F806460F46AC
:1046A0006410002CEAD1DDE90401DDE90023BAF150
:1046B000000F06DAFCF726F842464B46FCF722F8D4
:1046C00005E0FCF791F842464B46FCF78DF80446AE
:1046D0000E460022284BFCF735F903D84FF0FF3087
:1046E000014607E00022254B20463146FBF763FFD9
:1046F000FCF7E9F8102409E0002C0ADB0A22002369
:10470000FBF7C2FE039B30321A55641E50EA0102C9
:10471000F2D1641C039AC4F111031444119A012AC2
:1047200003D0012208430DD10AE0084304D0002041
:104730004FF0110B119072E7A3EB0B056D1E0DE00E
:104740005B4504DD4FF0000205F1010504E003DAEA
:104750004FF00002A5F10105002AECD00298119952
:10476000C0E90231C0E9004579E7000000001440CB
:104770000000F03F300000000000F0430000E03F88
:104780002DE9FF4F95B09B468946064600250FE26E
:10479000252877D100242746F84A0121059400E016
:1047A000044316F8013F203B01FA03F01042F7D111
:1047B00030782A2811D06FF02F033078A0F1300222
:1047C000092A16D8059A44F0020402EB820203EB90
:1047D00042021044761C0590EFE759F8042B05922D
:1047E000002A03DA504244F40054059044F00204D5
:1047F000761C30782E2816D116F8010F44F00404E8
:104800002A280DD06FF02F023078A0F13003092B49
:1048100009D807EB870302EB4303C718761CF3E7BD
:1048200059F8047B761C30786C280FD006DC4C28B5
:1048300017D068280DD06A2814D104E0742810D04D
:104840007A280FD10DE044F400140AE044F48014F7
:1048500001E044F440147278824202D104F58014DD
:10486000761C761C307866280BD013DC582877D05D
:1048700009DC002875D04528F6D04628F4D0472812
:104880001AD19DE118E0632835D0642879D06528D5
:1048900012D195E1702873D008DC6728F1D069281F
:1048A0006FD06E280DD06F2806D1B5E073282CD0BC
:1048B000752875D0782874D05A46179990476D1C82
:1048C00075E1C4F30250022809D003280DD0D9F8AD
:1048D000001004280DD00D6009F1040967E1D9F832
:1048E0000010EA17C1E90052F6E7D9F800100D8070
:1048F000F2E70D70F0E719F8041B8DF800100020A6
:104900008DF80100EA46012003E059F804AB4FF0AE
:10491000FF3061074FF0000102D40DE008F1010102
:104920008846B9420FDA8045F8DB1AF808100029EA
:10493000F4D108E008F1010188468142FADB1AF857
:1049400008100029F6D105985B46A0EB0807214620
:104950003846179A00F094FA284400EB080507E05F
:104960004DE029E10DE01AF8010B5A4617999047DE
:10497000B8F10108F7D25B4621463846179A13E191
:1049800042E00A220092C4F302524FF0000A022AC7
:1049900008D059F804CB032A4FEAEC710AD00DE095
:1049A00029E02AE009F1070121F00702F2E802C13B
:1049B000914609E00FFA8CFC4FEAEC71042A03D10E
:1049C0004FFA8CFC4FEAEC71002907DA0A46002105
:1049D000DCF1000C61EB02012D2202E0220504D57E
:1049E0002B228DF80420012203E0E20701D02022CF
:1049F000F7E7904659E00A2102E010220DE010216D
:104A00004FF0000A00910BE010224FF0000A44F032
:104A100004040827009203E008224FF0000A0092E5
:104A2000C4F30252022A05D059F804CB0021032A0C
:104A300008D009E009F1070121F00702F2E802C1FC
:104A4000914605E01FFA8CFC042A01D10CF0FF0C02
:104A50004FF00008220728D5702806D0009B83F06D
:104A6000100353EA0A0305D00EE040228DF804201B
:104A7000012208E05CEA010206D030228DF8042011
:104A80008DF8050002229046009B83F0080353EA4C
:104A90000A030AD15CEA010201D1620705D530227E
:104AA0008DF804204FF001087F1E582804D034A050
:104AB00003900EA802900DE036A0F9E75346604639
:104AC000009AFBF7E1FC84460398825C0298401E42
:104AD000029002705CEA0100F0D1029806A9081A5F
:104AE00000F1200A600702D524F4803400E0012799
:104AF000574502DDA7EB0A0000E0002000EB0A01A9
:104B0000009005984144401A0590E00306D45B46A6
:104B10002146179A059800F0B3F90544002706E0EE
:104B200001A85A46C05D179990476D1C7F1C4745E8
:104B3000F6DBE0030CD55B462146179A059800F09A
:104B40009FF9054404E030205A46179990476D1CA0
:104B50000099481E00900029F5DC08E002980299AF
:104B60005A460078491C0291179990476D1CBAF17A
:104B70000001AAF1010AF1DC65E100000928010049
:104B800030313233343536373839616263646566C3
:104B90000000000030313233343536373839414285
:104BA000434445460000000000F058F90544761CD7
:104BB000307800287FF4ECAD19B02846BDE8F08FBE
:104BC000620700D4062709F1070222F0070CFCE86F
:104BD0000223E14603F000485FEA080C02D00FF21E
:104BE000702C0DE05FEA045C02D50FF2682C07E040
:104BF0005FEAC47C02D00FF2602C01E0AFF2700CCF
:104C00004FF0FF3823F00043CDF850C065280CD09A
:104C100006DC452809D046281DD047283DD13DE077
:104C2000662818D067287ED138E00021112F01DBDB
:104C3000112000E0781CCDE9000106A90EA8FFF7BD
:104C4000DDFCDDE90F010E9A03910021009207F1CE
:104C5000010A04914DE04FF000400097CDE90110AA
:104C600006A90EA8FFF7CAFCDDE90F0203920E9B0E
:104C700011990022DDF80CA00093049211B9791C5F
:104C800000EB010AB7EB0A0004D4C0F1FF3007F1D2
:104C9000010A0490AAEB0700019044E0012F00DA1A
:104CA00001270021112F01DD112000E03846CDE958
:104CB000000106A90EA8FFF7A1FCDDE90F010E9A7D
:104CC0000391002104910092BA4621070CD4039964
:104CD000514500DA8A46BAF1010F05DD009AAAF1C2
:104CE0000101515C302908D0B84202DA10F1040FFA
:104CF00006DA0121CDE9011015E0AAF10101E9E789
:104D0000002805DC049901440491AAEB000102E0AB
:104D1000411C514500DD8A460499401A401C01900F
:104D20004FF000400290200704D40198504501DB69
:104D3000CDF8048000208DF84F0002980DF14F0748
:104D4000B0F1004F25D02B200E9002984FF00208B2
:104D500000280CDA404202902D200E9007E00A2134
:104D60000298FBF77BFB3031029007F8011DB8F188
:104D70000001A8F10108F2DC02980028EFD1791EA9
:104D80000E980870307800F0200040F0450007F8D9
:104D9000020D12A8C01B00F107081498007800B19A
:104DA000012000EB0A01019801EBE07105984144F4
:104DB000401A401E0590E00306D45B462146179A30
:104DC000059800F05DF805441498007818B15A462B
:104DD000179990476D1CE00324D55B462146179A2E
:104DE000059800F04DF805441CE00498002807DB06
:104DF000DDE90301884203DD0098405C179901E07A
:104E0000179930205A469047049805F10105401C37
:104E100004900198401E019004D12E205A46179903
:104E200090476D1CBAF10001AAF1010ADDDC05E032
:104E300017F8010B5A46179990476D1CB8F10001FD
:104E4000A8F10108F4DC5B462146179A0598ABE609
:104E50002D0000002B000000200000002DE9F04193
:104E6000044600251E461746880404D405E039464A
:104E70002020B0476D1C641EF9D52846BDE8F0819E
:104E80002DE9F041044600251E469046C80301D591
:104E9000302700E02027880404D505E04146384645
:104EA000B0476D1C641EF9D52846BDE8F0810000AE
:104EB0002DE9F04104464FF00E4000EB4400B0F104
:104EC000506F204655D84FF0FC41B1EB440F1CD237
:104ED00024F000404FF07E51FBF7DEF94FF0FF3138
:104EE000FBF74DFA054601F059F814F0004F1DBFCD
:104EF0002F4F304E80F000402F4F08BF2F4E4FF005
:104F00004041FBF7CCF9044605E000273E46014648
:104F1000FBF7C5F905462A492846FBF7C0F9294998
:104F2000FBF765F92946FBF7BAF92749FBF75FF963
:104F30002946FBF7B4F92549FBF759F92946FBF750
:104F4000AEF92349FBF753F9804629462046FBF783
:104F5000A6F94146FBF7A3F9054631462046FBF783
:104F600046F92946FBF743F93946BDE8F041FBF71E
:104F70003EB94FF0E441B1EB440F08D9FFF7EEFA28
:104F8000042808BFFFF720FB2046BDE8F0814FF062
:104F90007F41B1EB440F03D2BDE8F041FFF706BB00
:104FA0000120FFF725FBBDE8F041FFF704BB00003F
:104FB0000000C9BF22AAFDB90000C93F22AAFD39DD
:104FC00024FE1C3DC78AD83C1E67383D1B93993D83
:104FD000AFAA2A3E2DE9F0474FF0684202EB4003AA
:104FE0000C460546B3F1654F3CBF02EB4102B2F1FE
:104FF000654F7CD2C0F3C753C1F3C7529A1A1B2A1C
:1050000006DD10F0004F14BF76487748BDE8F08702
:1050100012F11A0F17DA11F0004F06D010F0004FFE
:105020000CBF72487248BDE8F08721462846FBF75E
:1050300068F90446FFF792FA042808BFFFF7C4FA9C
:105040002046BDE8F0874200B2EB410F25D910F0B1
:10505000004F19BF674F684E684F694E224685F072
:10506000004415460A4680F0004110460A1A5200D4
:10507000B2F1807F40D248406249DFF88CA110F045
:10508000004F18D04FF03F483846FBF702F907466B
:1050900051463046FBF7FDF817E011F0004F04BF12
:1050A00000263746E2D010F0004F19BF574F584E38
:1050B000584F594EDAE74FF07C583846FBF797F8CF
:1050C000074651463046FBF792F8064641462846C9
:1050D000FBF7E5F82146FBF78AF882462146404671
:1050E000FBF7DDF82946FBF7D7F8514600E037E03B
:1050F000FBF707F9044604E021462846FBF701F9CF
:1051000004460146FBF7CBF880464449FBF7C7F855
:105110004349FBF76CF84146FBF7C1F84149FBF7FF
:1051200066F84146FBF7BBF83F49FBF760F841469C
:10513000FBF7B5F83D49FBF75AF8054641462046CE
:10514000FBF7ADF82946FBF7AAF83146FBF74FF815
:105150002146FBF74CF83946BDE8F047FBF747B866
:105160004FF07F42B2EB400F28BFB2EB410F03D2AA
:10517000BDE8F047FFF71DBA40EA01035B0008BF36
:1051800044F0FF410AD0B2EB400F08BFB2EB410F31
:1051900006D125F0804024F0804105460C4629E7E1
:1051A000B2EB400F12BF5FEA410245F0FF4004F04E
:1051B00000413FF41FAF4A0092EA40033FF51AAFA7
:1051C000002AACBF4FF09F464FF03E563146FBF7EA
:1051D00066F8054631462046FBF761F80446284646
:1051E000214607E7DB0FC9BFDB0FC93FDB0F494093
:1051F000DB0F49C00000C9BF22AAFDB90000C93FAA
:1052000022AAFD390060ED3EC30ACE37000049C036
:1052100022AA7DBA0000494022AA7D3A2DAD65BD83
:105220008FB8D53D0FB511BE61C84C3EA8AAAABE25
:1052300070B50F4C00F024F8FBF7ADF82146FBF7F2
:1052400060F80C4900F042FA4FF07E51FBF724F869
:105250000949FBF724F8094C05466062207820B123
:105260002846E16AFBF715F8A062284670BD0000E9
:1052700080E6C547AEDC423E002A2D4724000020D0
:105280002DE9F05FF72000F03DF9834600F0C6F805
:105290005A4C5B494FF0000A206BB4F91250C21708
:1052A000411842F1FF30A1FB012300FB013301FB58
:1052B0000038A2FB0537EE1708FB057502FB0659FF
:1052C000B4F91050A1FB057CEE1700FB05C501FBEE
:1052D00006556E0446EAD7367F04FB1846EB0906EE
:1052E0001AEB0309B4F90C30B4F90E50A2FB037C9D
:1052F00046EBC5054FEAE37608FB03C302FB063223
:10530000B4F90A304FEA1726A1FB03C800FB03805B
:105310004FEAE37701FB07004FEA003146EA0266F5
:105320004FEA0C3041EA1C51301841EB2222001C9C
:1053300042F500432289A0FB027603FB026200FBD8
:105340000A204210C31752EA030055D0CBF5801053
:10535000C117C907C60741EA5001B6EB090640F676
:105360003547A6FB070C61EB050101FB07C10025D2
:1053700006FB0511FAF7D6FEB4F91850420B42EAC3
:10538000C142A2FB057C4B13EE1703FB05C502FBD4
:105390000655A7FB026C05FB02C207FB0323720E36
:1053A00042EAC3125D16B4F91630A3FB007CDE1787
:1053B00006FB00C603FB0166FB0C801843EA46337C
:1053C0006941C01841EBE6414FEA102242EA01620E
:1053D0004FEA2120B4F914104FEAE1734FEA0313A6
:1053E00043EA11734FEA011151185841020642EA8B
:1053F0001120E061BDE8F09F0020FBE724000020C1
:10540000000CFEFF10B5044C2078002802D0FFF7F6
:105410000FFFA06A10BD00002400002010B5FA2084
:1054200000F070F80C49C3104A88B1F90440A3EBAE
:105430004203C2EB20104043B1F90620634300133E
:10544000DB12504303EBA030086300EB8000803098
:105450000012086210BD00002400002010B5FDF706
:1054600009FA6420FEF71BFEB621E02000F0B6F832
:105470000520FBF7D1FFFF21F42000F0AFF8002159
:10548000F52000F0ABF80A20FBF7C6FF882000F0FB
:1054900062F81B4C60808A2000F05DF8A0808C20B0
:1054A00000F059F8E0808E2000F055F8208190201F
:1054B00000F051F86081922000F04DF8A081942016
:1054C00000F049F8E081962000F045F8208298200D
:1054D00000F041F860829A2000F03DF8A0829C2004
:1054E00000F039F8E0829E2000F035F82083142087
:1054F000FBF792FF00202070E062A06210BD000068
:105500002400002070B50446FDF748FAEC20FDF7B2
:1055100017FAFDF77BFA2046FDF712FAFDF776FA47
:10552000FDF73CFAED20FDF70BFAFDF76FFA0120CD
:10553000FDF7DAF904460120FDF7D6F9054600200B
:10554000FDF7D2F90646FDF749FA200340EA0510B7
:1055500040EA161070BD70B50446FDF71FFAEC2046
:10556000FDF7EEF9FDF752FA2046FDF7E9F9FDF7F0
:105570004DFAFDF713FAED20FDF7E2F9FDF746FAD3
:105580000120FDF7B1F905460020FDF7ADF904460D
:10559000FDF724FA45EA042070BD00000148806A46
:1055A000704700002400002010B5FFF741FE074CB3
:1055B000E062FAF72BFF02460B4605A0FEF7BEFF9E
:1055C000012020700020A06210BD000024000020F7
:1055D000252E3266202020202020000070B50D46A8
:1055E0000446FDF7DBF9EC20FDF7AAF9FDF70EFA0A
:1055F0002046FDF7A5F9FDF709FA2846FDF7A0F9C1
:10560000FDF704FAFDF7EAF9BDE870400A20FEF75D
:1056100046BD000003490A685206FCD50149091D30
:105620000860704700440040FCF710F8FEF744FDA6
:10563000FDF752FDFDF766FEFDF798FEFDF720FF32
:10564000FDF7EAFEFDF7E0FDFDF7BAFDFDF71CFDF5
:105650001948FCF7E5FD1948FCF70AFE0021184837
:10566000FDF71AF804211648FDF716F8082114482A
:10567000FDF712F80C211248FDF70EF800231A4628
:1056800019461846FDF7FEFF0EA0FEF757FF4FF430
:10569000FA60FBF7C1FEFBF769FA4FF47A70FBF78B
:1056A000BBFEFDF735FF4FF4FA7400BFFEF743FF72
:1056B0002046FBF7B1FEF9E748020020B8010020C0
:1056C0007001002068616C6C6F0D0A002DE9F04DCF
:1056D0000E460023A0F5000C4FF00071354684B053
:1056E00002464FF07E5401EB45014FF07F48BCF17C
:1056F000FE4F80F09F81B1F1804FC0F0DB81FE4909
:105700000144B1F5005F40F2A78200F58021C90C89
:1057100001F00F07C1F307117F39A2EBC15501EB6F
:10572000030B3846FAF737FE6FF00301FAF727FE4E
:105730004FF07E51FAF75BFD014602902846FAF7DA
:10574000A8FD019028460299FAF751FD00F5006A7C
:105750006FF30B0A009051460298FAF79AFD29461A
:10576000FAF745FD02904FF07E500099FAF7C9FD17
:10577000014600900198FAF792FD00F500656FF37D
:105780000B0528460299FAF78AFD029051462846F1
:10579000FAF785FD0199FAF77FFD0299FAF779FD8D
:1057A0000099FAF77CFD014601902846FAF71FFDA3
:1057B00001460290FAF773FD8246D049FAF76FFD71
:1057C000CF49FAF714FD5146FAF769FD82460021E8
:1057D0002846FAF7D4FD009051460298FAF75FFD8B
:1057E000054600210198FAF7CAFD2946FAF7FFFCA1
:1057F000824601460098FAF7FAFC00F500656FF35F
:105800000B0529460098FAF744FD5146FAF7EFFCDC
:105810008246BC492846FAF742FD0090BA495046F4
:10582000FAF73DFD8246B9492846FAF738FD514658
:10583000FAF7DDFC824601460098FAF7D8FC00F53D
:1058400000656FF30B0529460098FAF722FD5146D3
:10585000FAF7CDFC8246AE48784450F8371000EB9A
:10586000C700019147684FEA0B10FAF794FD0090CA
:1058700039465046FAF7BBFC2946FAF7B8FC0199BD
:10588000FAF7B5FC0099FAF7B2FC00F5006B6FF37C
:105890000B0B58460099FAF7FCFC0199FAF7F9FC52
:1058A0002946FAF7F6FC3946FAF7F3FC5146FAF7BF
:1058B000F3FC06F5006782466FF30B073946304666
:1058C000FAF7E7FC002100900846FBF753F800F0D8
:1058D0000C0639465846FAF7E2FC054620F000402F
:1058E000B0F18B4F0ADDB8EB400F07D34FF08B4080
:1058F00060F31E052F464FF0000A1FE0384600995E
:10590000FAF775FC5146FAF7CAFC07465846009963
:10591000FAF7C5FC3946FAF76AFC82460146284682
:10592000FAF765FC00F500676FF30B073946284668
:10593000FAF7AFFC5146FAF75AFC824631460C2082
:10594000FBF718F851463846FAF751FCFAF7D3FF3F
:1059500006460511FAF71FFD3946FAF79DFC514638
:10596000FAF745FC07466B49FAF799FC6A49FAF7DA
:105970003EFC3946FAF793FC6849FAF738FC394699
:10598000FAF78DFC0146664806F00F06784450F899
:105990002600FAF784FC6349794451F82610FAF797
:1059A00026FC6149794451F82610FAF720FC05F1EC
:1059B0007D01FC2908D22946FAF7E1FC04B0214612
:1059C000BDE8F04DFAF76BBC05F1BF01B1F5BF7F43
:1059D00016D82946FAF7D3FC2146FAF760FC0546AB
:1059E000B8EB450F1AD068000CD02846FEF7B6FD7C
:1059F000042808BFFEF7E8FD284604B0BDE8F08D96
:105A0000002D0BDA0220FEF7F3FDFEF7DDFD014667
:105A1000204604B061F31E00BDE8F08D0220FEF7C1
:105A2000E7FDFEF7CCFD0146204604B061F31E0001
:105A3000BDE8F08DB1F1804F3CD300BF00F1FF41D4
:105A4000B1F1FE4F21D200BF20F00042C5F3C75193
:105A500010467F290DDB9729BFF651AEC1F19601A3
:105A60004FF0010C0CFA01F1A1F1010C1CEA050F39
:105A700007D00120FEF7BCFD04B0BDE8F04DFEF7F5
:105A80009ABD294218BF294C39E641001CBF4FF08E
:105A90008071B1EB400F09D91B21FAF770FC024667
:105AA0006FF01A0310F0004FCED128E6BCF1FE4F84
:105AB00018D224E6B1F1007F0ED336F0004105D0B4
:105AC00006F0004141F0FC552E46B7E7410018BFF3
:105AD000B8EB400F78D8B1E7B1F1807F38BFA5F5BA
